{
  "contractName": "MoneyDistribution",
  "abi": [
    {
      "inputs": [],
      "stateMutability": "nonpayable",
      "type": "constructor"
    },
    {
      "anonymous": false,
      "inputs": [
        {
          "indexed": false,
          "internalType": "string",
          "name": "message",
          "type": "string"
        }
      ],
      "name": "event1",
      "type": "event"
    },
    {
      "inputs": [
        {
          "internalType": "uint256",
          "name": "",
          "type": "uint256"
        }
      ],
      "name": "allProduct",
      "outputs": [
        {
          "internalType": "string",
          "name": "",
          "type": "string"
        }
      ],
      "stateMutability": "view",
      "type": "function",
      "constant": true
    },
    {
      "inputs": [
        {
          "internalType": "uint256",
          "name": "",
          "type": "uint256"
        }
      ],
      "name": "finishedProduct",
      "outputs": [
        {
          "internalType": "string",
          "name": "",
          "type": "string"
        }
      ],
      "stateMutability": "view",
      "type": "function",
      "constant": true
    },
    {
      "inputs": [
        {
          "internalType": "string",
          "name": "",
          "type": "string"
        }
      ],
      "name": "moneyLeft",
      "outputs": [
        {
          "internalType": "uint256",
          "name": "",
          "type": "uint256"
        }
      ],
      "stateMutability": "view",
      "type": "function",
      "constant": true
    },
    {
      "inputs": [],
      "name": "ourBalance",
      "outputs": [
        {
          "internalType": "uint256",
          "name": "",
          "type": "uint256"
        }
      ],
      "stateMutability": "view",
      "type": "function",
      "constant": true
    },
    {
      "inputs": [
        {
          "internalType": "address",
          "name": "",
          "type": "address"
        }
      ],
      "name": "overallProfit",
      "outputs": [
        {
          "internalType": "uint256",
          "name": "",
          "type": "uint256"
        }
      ],
      "stateMutability": "view",
      "type": "function",
      "constant": true
    },
    {
      "inputs": [],
      "name": "owner",
      "outputs": [
        {
          "internalType": "address",
          "name": "",
          "type": "address"
        }
      ],
      "stateMutability": "view",
      "type": "function",
      "constant": true
    },
    {
      "inputs": [
        {
          "internalType": "address",
          "name": "",
          "type": "address"
        },
        {
          "internalType": "uint256",
          "name": "",
          "type": "uint256"
        }
      ],
      "name": "ownproducts",
      "outputs": [
        {
          "internalType": "string",
          "name": "",
          "type": "string"
        }
      ],
      "stateMutability": "view",
      "type": "function",
      "constant": true
    },
    {
      "inputs": [
        {
          "internalType": "string",
          "name": "",
          "type": "string"
        },
        {
          "internalType": "uint256",
          "name": "",
          "type": "uint256"
        }
      ],
      "name": "prodAccess",
      "outputs": [
        {
          "internalType": "address",
          "name": "",
          "type": "address"
        }
      ],
      "stateMutability": "view",
      "type": "function",
      "constant": true
    },
    {
      "inputs": [
        {
          "internalType": "string",
          "name": "",
          "type": "string"
        }
      ],
      "name": "products",
      "outputs": [
        {
          "internalType": "string",
          "name": "id",
          "type": "string"
        },
        {
          "internalType": "address",
          "name": "owner",
          "type": "address"
        },
        {
          "internalType": "string",
          "name": "name",
          "type": "string"
        },
        {
          "internalType": "string",
          "name": "prodimg",
          "type": "string"
        },
        {
          "internalType": "uint256",
          "name": "amt",
          "type": "uint256"
        },
        {
          "internalType": "uint256",
          "name": "min_review_count",
          "type": "uint256"
        },
        {
          "internalType": "string",
          "name": "prod_Details",
          "type": "string"
        },
        {
          "internalType": "string",
          "name": "company_name",
          "type": "string"
        },
        {
          "internalType": "bool",
          "name": "typ",
          "type": "bool"
        },
        {
          "internalType": "string",
          "name": "status",
          "type": "string"
        },
        {
          "internalType": "uint256",
          "name": "nextAmount",
          "type": "uint256"
        },
        {
          "internalType": "uint256",
          "name": "reviewCount",
          "type": "uint256"
        }
      ],
      "stateMutability": "view",
      "type": "function",
      "constant": true
    },
    {
      "inputs": [
        {
          "internalType": "string",
          "name": "",
          "type": "string"
        },
        {
          "internalType": "uint256",
          "name": "",
          "type": "uint256"
        }
      ],
      "name": "reviewers",
      "outputs": [
        {
          "internalType": "address",
          "name": "",
          "type": "address"
        }
      ],
      "stateMutability": "view",
      "type": "function",
      "constant": true
    },
    {
      "inputs": [
        {
          "internalType": "string",
          "name": "",
          "type": "string"
        },
        {
          "internalType": "uint256",
          "name": "",
          "type": "uint256"
        }
      ],
      "name": "reviews",
      "outputs": [
        {
          "internalType": "string",
          "name": "",
          "type": "string"
        }
      ],
      "stateMutability": "view",
      "type": "function",
      "constant": true
    },
    {
      "stateMutability": "payable",
      "type": "receive",
      "payable": true
    },
    {
      "inputs": [
        {
          "internalType": "string",
          "name": "prodID",
          "type": "string"
        },
        {
          "internalType": "string",
          "name": "prodimg",
          "type": "string"
        },
        {
          "internalType": "string",
          "name": "name",
          "type": "string"
        },
        {
          "internalType": "bool",
          "name": "t",
          "type": "bool"
        },
        {
          "internalType": "string[]",
          "name": "orderIDs",
          "type": "string[]"
        },
        {
          "internalType": "uint256",
          "name": "min_review_count",
          "type": "uint256"
        },
        {
          "internalType": "string",
          "name": "prod_Details",
          "type": "string"
        },
        {
          "internalType": "string",
          "name": "company_name",
          "type": "string"
        }
      ],
      "name": "NewProduct",
      "outputs": [],
      "stateMutability": "payable",
      "type": "function",
      "payable": true
    },
    {
      "inputs": [
        {
          "internalType": "string",
          "name": "orderID",
          "type": "string"
        },
        {
          "internalType": "string",
          "name": "prodID",
          "type": "string"
        },
        {
          "internalType": "string",
          "name": "review",
          "type": "string"
        }
      ],
      "name": "NewReview",
      "outputs": [],
      "stateMutability": "payable",
      "type": "function",
      "payable": true
    },
    {
      "inputs": [
        {
          "internalType": "string",
          "name": "prodID",
          "type": "string"
        }
      ],
      "name": "Refund",
      "outputs": [],
      "stateMutability": "payable",
      "type": "function",
      "payable": true
    },
    {
      "inputs": [],
      "name": "getProducts",
      "outputs": [
        {
          "components": [
            {
              "internalType": "string",
              "name": "id",
              "type": "string"
            },
            {
              "internalType": "address",
              "name": "owner",
              "type": "address"
            },
            {
              "internalType": "string",
              "name": "name",
              "type": "string"
            },
            {
              "internalType": "string",
              "name": "prodimg",
              "type": "string"
            },
            {
              "internalType": "string[]",
              "name": "orderIDs",
              "type": "string[]"
            },
            {
              "internalType": "uint256",
              "name": "amt",
              "type": "uint256"
            },
            {
              "internalType": "uint256",
              "name": "min_review_count",
              "type": "uint256"
            },
            {
              "internalType": "string",
              "name": "prod_Details",
              "type": "string"
            },
            {
              "internalType": "string",
              "name": "company_name",
              "type": "string"
            },
            {
              "internalType": "bool",
              "name": "typ",
              "type": "bool"
            },
            {
              "internalType": "string",
              "name": "status",
              "type": "string"
            },
            {
              "internalType": "uint256",
              "name": "nextAmount",
              "type": "uint256"
            },
            {
              "internalType": "uint256",
              "name": "reviewCount",
              "type": "uint256"
            }
          ],
          "internalType": "struct MoneyDistribution.AllDetails[]",
          "name": "",
          "type": "tuple[]"
        }
      ],
      "stateMutability": "view",
      "type": "function",
      "constant": true
    },
    {
      "inputs": [],
      "name": "getAllProductbyOwner",
      "outputs": [
        {
          "components": [
            {
              "internalType": "string",
              "name": "id",
              "type": "string"
            },
            {
              "internalType": "address",
              "name": "owner",
              "type": "address"
            },
            {
              "internalType": "string",
              "name": "name",
              "type": "string"
            },
            {
              "internalType": "string",
              "name": "prodimg",
              "type": "string"
            },
            {
              "internalType": "string[]",
              "name": "orderIDs",
              "type": "string[]"
            },
            {
              "internalType": "uint256",
              "name": "amt",
              "type": "uint256"
            },
            {
              "internalType": "uint256",
              "name": "min_review_count",
              "type": "uint256"
            },
            {
              "internalType": "string",
              "name": "prod_Details",
              "type": "string"
            },
            {
              "internalType": "string",
              "name": "company_name",
              "type": "string"
            },
            {
              "internalType": "bool",
              "name": "typ",
              "type": "bool"
            },
            {
              "internalType": "string",
              "name": "status",
              "type": "string"
            },
            {
              "internalType": "uint256",
              "name": "nextAmount",
              "type": "uint256"
            },
            {
              "internalType": "uint256",
              "name": "reviewCount",
              "type": "uint256"
            }
          ],
          "internalType": "struct MoneyDistribution.AllDetails[]",
          "name": "",
          "type": "tuple[]"
        }
      ],
      "stateMutability": "view",
      "type": "function",
      "constant": true
    },
    {
      "inputs": [
        {
          "internalType": "string",
          "name": "prodID",
          "type": "string"
        }
      ],
      "name": "getReview",
      "outputs": [
        {
          "internalType": "string[]",
          "name": "",
          "type": "string[]"
        }
      ],
      "stateMutability": "view",
      "type": "function",
      "constant": true
    },
    {
      "inputs": [
        {
          "internalType": "string",
          "name": "prodID",
          "type": "string"
        }
      ],
      "name": "BuyReview",
      "outputs": [],
      "stateMutability": "payable",
      "type": "function",
      "payable": true
    },
    {
      "inputs": [
        {
          "internalType": "address",
          "name": "addr",
          "type": "address"
        }
      ],
      "name": "getProfit",
      "outputs": [
        {
          "internalType": "uint256",
          "name": "",
          "type": "uint256"
        }
      ],
      "stateMutability": "view",
      "type": "function",
      "constant": true
    },
    {
      "inputs": [
        {
          "internalType": "string",
          "name": "a",
          "type": "string"
        },
        {
          "internalType": "string",
          "name": "b",
          "type": "string"
        }
      ],
      "name": "compareStrings",
      "outputs": [
        {
          "internalType": "bool",
          "name": "",
          "type": "bool"
        }
      ],
      "stateMutability": "pure",
      "type": "function",
      "constant": true
    }
  ],
  "bytecode": "0x608060405234801561000f575f80fd5b503360095f6101000a81548173ffffffffffffffffffffffffffffffffffffffff021916908373ffffffffffffffffffffffffffffffffffffffff160217905550614b968061005d5f395ff3fe608060405260043610610122575f3560e01c806383849e811161009f578063bed34bba11610063578063bed34bba14610426578063c1153c3114610462578063c29b2f201461049e578063c600e1dc146104c8578063ea6471ae1461050457610129565b806383849e811461032c5780638da5cb5b1461034857806399d1a60f14610372578063adad41cd146103ae578063b444dc75146103ea57610129565b806352da993e116100e657806352da993e14610212578063697582621461024e5780637144dbea1461028a57806371f5e27c146102c65780638171166b1461030257610129565b80630186a4231461012d578063039f573e1461017457806306ac9565146101b0578063199c4fb4146101cc578063233b9a63146101e857610129565b3661012957005b5f80fd5b348015610138575f80fd5b50610153600480360381019061014e9190613537565b610520565b60405161016b9c9b9a99989796959493929190613669565b60405180910390f35b34801561017f575f80fd5b5061019a60048036038101906101959190613775565b6108e3565b6040516101a791906137cf565b60405180910390f35b6101ca60048036038101906101c591906138f4565b610943565b005b6101e660048036038101906101e19190613537565b610dd7565b005b3480156101f3575f80fd5b506101fc611010565b6040516102099190613a4d565b60405180910390f35b34801561021d575f80fd5b5061023860048036038101906102339190613775565b611016565b60405161024591906137cf565b60405180910390f35b348015610259575f80fd5b50610274600480360381019061026f9190613a90565b611076565b6040516102819190613a4d565b60405180910390f35b348015610295575f80fd5b506102b060048036038101906102ab9190613537565b61108b565b6040516102bd9190613a4d565b60405180910390f35b3480156102d1575f80fd5b506102ec60048036038101906102e79190613775565b6110b8565b6040516102f99190613abb565b60405180910390f35b34801561030d575f80fd5b50610316611181565b6040516103239190613e06565b60405180910390f35b61034660048036038101906103419190613537565b6117ec565b005b348015610353575f80fd5b5061035c611ca2565b60405161036991906137cf565b60405180910390f35b34801561037d575f80fd5b5061039860048036038101906103939190613e26565b611cc7565b6040516103a59190613abb565b60405180910390f35b3480156103b9575f80fd5b506103d460048036038101906103cf9190613e26565b611d6d565b6040516103e19190613abb565b60405180910390f35b3480156103f5575f80fd5b50610410600480360381019061040b9190613537565b611e12565b60405161041d9190613ed4565b60405180910390f35b348015610431575f80fd5b5061044c60048036038101906104479190613ef4565b611f52565b6040516104599190613f6a565b60405180910390f35b34801561046d575f80fd5b5061048860048036038101906104839190613f83565b611faa565b6040516104959190613abb565b60405180910390f35b3480156104a9575f80fd5b506104b261205b565b6040516104bf9190613e06565b60405180910390f35b3480156104d3575f80fd5b506104ee60048036038101906104e99190613a90565b612612565b6040516104fb9190613a4d565b60405180910390f35b61051e60048036038101906105199190613fc1565b612658565b005b6003818051602081018201805184825260208301602085012081835280955050505050505f91509050805f01805461055790614092565b80601f016020809104026020016040519081016040528092919081815260200182805461058390614092565b80156105ce5780601f106105a5576101008083540402835291602001916105ce565b820191905f5260205f20905b8154815290600101906020018083116105b157829003601f168201915b505050505090806001015f9054906101000a900473ffffffffffffffffffffffffffffffffffffffff169080600201805461060890614092565b80601f016020809104026020016040519081016040528092919081815260200182805461063490614092565b801561067f5780601f106106565761010080835404028352916020019161067f565b820191905f5260205f20905b81548152906001019060200180831161066257829003601f168201915b50505050509080600301805461069490614092565b80601f01602080910402602001604051908101604052809291908181526020018280546106c090614092565b801561070b5780601f106106e25761010080835404028352916020019161070b565b820191905f5260205f20905b8154815290600101906020018083116106ee57829003601f168201915b50505050509080600501549080600601549080600701805461072c90614092565b80601f016020809104026020016040519081016040528092919081815260200182805461075890614092565b80156107a35780601f1061077a576101008083540402835291602001916107a3565b820191905f5260205f20905b81548152906001019060200180831161078657829003601f168201915b5050505050908060080180546107b890614092565b80601f01602080910402602001604051908101604052809291908181526020018280546107e490614092565b801561082f5780601f106108065761010080835404028352916020019161082f565b820191905f5260205f20905b81548152906001019060200180831161081257829003601f168201915b505050505090806009015f9054906101000a900460ff169080600a01805461085690614092565b80601f016020809104026020016040519081016040528092919081815260200182805461088290614092565b80156108cd5780601f106108a4576101008083540402835291602001916108cd565b820191905f5260205f20905b8154815290600101906020018083116108b057829003601f168201915b50505050509080600b01549080600c015490508c565b6005828051602081018201805184825260208301602085012081835280955050505050508181548110610914575f80fd5b905f5260205f20015f915091509054906101000a900473ffffffffffffffffffffffffffffffffffffffff1681565b6064341015610986577f0571c17fabdbebea862518abb447980c8b2af18b117ce124e8eb3c75a596112d6040516109799061410c565b60405180910390a1610dcd565b5f6064346109949190614157565b90506064600a5f8282546109a8919061418a565b9250508190555073b4f10cf4303f864bc564fdd37b639fdc0842ad5773ffffffffffffffffffffffffffffffffffffffff166108fc606490811502906040515f60405180830381858888f19350505050158015610a07573d5f803e3d5ffd5b505f89908060018154018082558091505060019003905f5260205f20015f909190919091509081610a38919061435a565b508060048a604051610a4a9190614463565b908152602001604051809103902081905550604051806101a001604052808a81526020013373ffffffffffffffffffffffffffffffffffffffff16815260200188815260200189815260200186815260200182815260200185815260200184815260200183815260200187151581526020016040518060400160405280600781526020017f6f6e676f696e670000000000000000000000000000000000000000000000000081525081526020015f81526020015f81525060038a604051610b119190614463565b90815260200160405180910390205f820151815f019081610b32919061435a565b506020820151816001015f6101000a81548173ffffffffffffffffffffffffffffffffffffffff021916908373ffffffffffffffffffffffffffffffffffffffff1602179055506040820151816002019081610b8e919061435a565b506060820151816003019081610ba4919061435a565b506080820151816004019080519060200190610bc192919061329e565b5060a0820151816005015560c0820151816006015560e0820151816007019081610beb919061435a565b50610100820151816008019081610c02919061435a565b50610120820151816009015f6101000a81548160ff02191690831515021790555061014082015181600a019081610c39919061435a565b5061016082015181600b015561018082015181600c01559050505f600385610c6191906144a6565b90506002600482610c7291906144d6565b83610c7d91906144a6565b610c8791906144d6565b60038b604051610c979190614463565b9081526020016040518091039020600b018190555060065f3373ffffffffffffffffffffffffffffffffffffffff1673ffffffffffffffffffffffffffffffffffffffff1681526020019081526020015f208a908060018154018082558091505060019003905f5260205f20015f909190919091509081610d18919061435a565b5060088a604051610d299190614463565b908152602001604051809103902033908060018154018082558091505060019003905f5260205f20015f9091909190916101000a81548173ffffffffffffffffffffffffffffffffffffffff021916908373ffffffffffffffffffffffffffffffffffffffff1602179055507f0571c17fabdbebea862518abb447980c8b2af18b117ce124e8eb3c75a596112d604051610dc290614561565b60405180910390a150505b5050505050505050565b610ebd600382604051610dea9190614463565b9081526020016040518091039020600a018054610e0690614092565b80601f0160208091040260200160405190810160405280929190818152602001828054610e3290614092565b8015610e7d5780601f10610e5457610100808354040283529160200191610e7d565b820191905f5260205f20905b815481529060010190602001808311610e6057829003601f168201915b50505050506040518060400160405280600781526020017f6f6e676f696e6700000000000000000000000000000000000000000000000000815250611f52565b610efc576040517f08c379a0000000000000000000000000000000000000000000000000000000008152600401610ef3906145c9565b60405180910390fd5b610f068133612da7565b610f45576040517f08c379a0000000000000000000000000000000000000000000000000000000008152600401610f3c90614631565b60405180910390fd5b5f600482604051610f569190614463565b90815260200160405180910390205490505f600483604051610f789190614463565b9081526020016040518091039020819055503373ffffffffffffffffffffffffffffffffffffffff166108fc8290811502906040515f60405180830381858888f19350505050158015610fcd573d5f803e3d5ffd5b50610fd782612e88565b7f0571c17fabdbebea862518abb447980c8b2af18b117ce124e8eb3c75a596112d60405161100490614699565b60405180910390a15050565b600a5481565b6008828051602081018201805184825260208301602085012081835280955050505050508181548110611047575f80fd5b905f5260205f20015f915091509054906101000a900473ffffffffffffffffffffffffffffffffffffffff1681565b6002602052805f5260405f205f915090505481565b6004818051602081018201805184825260208301602085012081835280955050505050505f915090505481565b60078280516020810182018051848252602083016020850120818352809550505050505081815481106110e9575f80fd5b905f5260205f20015f9150915050805461110290614092565b80601f016020809104026020016040519081016040528092919081815260200182805461112e90614092565b80156111795780601f1061115057610100808354040283529160200191611179565b820191905f5260205f20905b81548152906001019060200180831161115c57829003601f168201915b505050505081565b60605f60065f3373ffffffffffffffffffffffffffffffffffffffff1673ffffffffffffffffffffffffffffffffffffffff1681526020019081526020015f208054905090505f8167ffffffffffffffff8111156111e2576111e1613413565b5b60405190808252806020026020018201604052801561121b57816020015b6112086132f5565b8152602001906001900390816112005790505b5090505f5b60065f3373ffffffffffffffffffffffffffffffffffffffff1673ffffffffffffffffffffffffffffffffffffffff1681526020019081526020015f20805490508110156117e357600360065f3373ffffffffffffffffffffffffffffffffffffffff1673ffffffffffffffffffffffffffffffffffffffff1681526020019081526020015f2082815481106112b9576112b86146b7565b5b905f5260205f20016040516112ce9190614764565b9081526020016040518091039020604051806101a00160405290815f820180546112f790614092565b80601f016020809104026020016040519081016040528092919081815260200182805461132390614092565b801561136e5780601f106113455761010080835404028352916020019161136e565b820191905f5260205f20905b81548152906001019060200180831161135157829003601f168201915b50505050508152602001600182015f9054906101000a900473ffffffffffffffffffffffffffffffffffffffff1673ffffffffffffffffffffffffffffffffffffffff1673ffffffffffffffffffffffffffffffffffffffff1681526020016002820180546113dc90614092565b80601f016020809104026020016040519081016040528092919081815260200182805461140890614092565b80156114535780601f1061142a57610100808354040283529160200191611453565b820191905f5260205f20905b81548152906001019060200180831161143657829003601f168201915b5050505050815260200160038201805461146c90614092565b80601f016020809104026020016040519081016040528092919081815260200182805461149890614092565b80156114e35780601f106114ba576101008083540402835291602001916114e3565b820191905f5260205f20905b8154815290600101906020018083116114c657829003601f168201915b5050505050815260200160048201805480602002602001604051908101604052809291908181526020015f905b828210156115b8578382905f5260205f2001805461152d90614092565b80601f016020809104026020016040519081016040528092919081815260200182805461155990614092565b80156115a45780601f1061157b576101008083540402835291602001916115a4565b820191905f5260205f20905b81548152906001019060200180831161158757829003601f168201915b505050505081526020019060010190611510565b50505050815260200160058201548152602001600682015481526020016007820180546115e490614092565b80601f016020809104026020016040519081016040528092919081815260200182805461161090614092565b801561165b5780601f106116325761010080835404028352916020019161165b565b820191905f5260205f20905b81548152906001019060200180831161163e57829003601f168201915b5050505050815260200160088201805461167490614092565b80601f01602080910402602001604051908101604052809291908181526020018280546116a090614092565b80156116eb5780601f106116c2576101008083540402835291602001916116eb565b820191905f5260205f20905b8154815290600101906020018083116116ce57829003601f168201915b50505050508152602001600982015f9054906101000a900460ff16151515158152602001600a8201805461171e90614092565b80601f016020809104026020016040519081016040528092919081815260200182805461174a90614092565b80156117955780601f1061176c57610100808354040283529160200191611795565b820191905f5260205f20905b81548152906001019060200180831161177857829003601f168201915b50505050508152602001600b8201548152602001600c820154815250508282815181106117c5576117c46146b7565b5b602002602001018190525080806117db9061477a565b915050611220565b50809250505090565b5f3490506003826040516118009190614463565b908152602001604051809103902060050154600261181e91906144d6565b811015611860577f0571c17fabdbebea862518abb447980c8b2af18b117ce124e8eb3c75a596112d6040516118529061410c565b60405180910390a150611c9f565b5f3390505f60038361187291906144a6565b90505f60038461188291906144a6565b90505f8183866118929190614157565b61189c9190614157565b90506003866040516118ae9190614463565b90815260200160405180910390206001015f9054906101000a900473ffffffffffffffffffffffffffffffffffffffff1673ffffffffffffffffffffffffffffffffffffffff166108fc8390811502906040515f60405180830381858888f19350505050158015611921573d5f803e3d5ffd5b505f5b6005876040516119349190614463565b908152602001604051809103902080549050811015611afd5760058760405161195d9190614463565b9081526020016040518091039020818154811061197d5761197c6146b7565b5b905f5260205f20015f9054906101000a900473ffffffffffffffffffffffffffffffffffffffff1673ffffffffffffffffffffffffffffffffffffffff166108fc6005896040516119ce9190614463565b908152602001604051809103902080549050846119eb91906144a6565b90811502906040515f60405180830381858888f19350505050158015611a13573d5f803e3d5ffd5b50600587604051611a249190614463565b90815260200160405180910390208054905082611a4191906144a6565b60025f60058a604051611a549190614463565b90815260200160405180910390208481548110611a7457611a736146b7565b5b905f5260205f20015f9054906101000a900473ffffffffffffffffffffffffffffffffffffffff1673ffffffffffffffffffffffffffffffffffffffff1673ffffffffffffffffffffffffffffffffffffffff1681526020019081526020015f205f828254611ae3919061418a565b925050819055508080611af59061477a565b915050611924565b5082600a5f828254611b0f919061418a565b9250508190555060095f9054906101000a900473ffffffffffffffffffffffffffffffffffffffff1673ffffffffffffffffffffffffffffffffffffffff166108fc8490811502906040515f60405180830381858888f19350505050158015611b7a573d5f803e3d5ffd5b50600886604051611b8b9190614463565b908152602001604051809103902084908060018154018082558091505060019003905f5260205f20015f9091909190916101000a81548173ffffffffffffffffffffffffffffffffffffffff021916908373ffffffffffffffffffffffffffffffffffffffff16021790555060065f3373ffffffffffffffffffffffffffffffffffffffff1673ffffffffffffffffffffffffffffffffffffffff1681526020019081526020015f2086908060018154018082558091505060019003905f5260205f20015f909190919091509081611c63919061435a565b507f0571c17fabdbebea862518abb447980c8b2af18b117ce124e8eb3c75a596112d604051611c919061480b565b60405180910390a150505050505b50565b60095f9054906101000a900473ffffffffffffffffffffffffffffffffffffffff1681565b60018181548110611cd6575f80fd5b905f5260205f20015f915090508054611cee90614092565b80601f0160208091040260200160405190810160405280929190818152602001828054611d1a90614092565b8015611d655780601f10611d3c57610100808354040283529160200191611d65565b820191905f5260205f20905b815481529060010190602001808311611d4857829003601f168201915b505050505081565b5f8181548110611d7b575f80fd5b905f5260205f20015f915090508054611d9390614092565b80601f0160208091040260200160405190810160405280929190818152602001828054611dbf90614092565b8015611e0a5780601f10611de157610100808354040283529160200191611e0a565b820191905f5260205f20905b815481529060010190602001808311611ded57829003601f168201915b505050505081565b60605f339050611e228382612da7565b611e61576040517f08c379a0000000000000000000000000000000000000000000000000000000008152600401611e5890614631565b60405180910390fd5b600783604051611e719190614463565b9081526020016040518091039020805480602002602001604051908101604052809291908181526020015f905b82821015611f46578382905f5260205f20018054611ebb90614092565b80601f0160208091040260200160405190810160405280929190818152602001828054611ee790614092565b8015611f325780601f10611f0957610100808354040283529160200191611f32565b820191905f5260205f20905b815481529060010190602001808311611f1557829003601f168201915b505050505081526020019060010190611e9e565b50505050915050919050565b5f81604051602001611f649190614463565b6040516020818303038152906040528051906020012083604051602001611f8b9190614463565b6040516020818303038152906040528051906020012014905092915050565b6006602052815f5260405f208181548110611fc3575f80fd5b905f5260205f20015f91509150508054611fdc90614092565b80601f016020809104026020016040519081016040528092919081815260200182805461200890614092565b80156120535780601f1061202a57610100808354040283529160200191612053565b820191905f5260205f20905b81548152906001019060200180831161203657829003601f168201915b505050505081565b60605f808054905090505f8167ffffffffffffffff8111156120805761207f613413565b5b6040519080825280602002602001820160405280156120b957816020015b6120a66132f5565b81526020019060019003908161209e5790505b5090505f5b5f805490508110156126095760035f82815481106120df576120de6146b7565b5b905f5260205f20016040516120f49190614764565b9081526020016040518091039020604051806101a00160405290815f8201805461211d90614092565b80601f016020809104026020016040519081016040528092919081815260200182805461214990614092565b80156121945780601f1061216b57610100808354040283529160200191612194565b820191905f5260205f20905b81548152906001019060200180831161217757829003601f168201915b50505050508152602001600182015f9054906101000a900473ffffffffffffffffffffffffffffffffffffffff1673ffffffffffffffffffffffffffffffffffffffff1673ffffffffffffffffffffffffffffffffffffffff16815260200160028201805461220290614092565b80601f016020809104026020016040519081016040528092919081815260200182805461222e90614092565b80156122795780601f1061225057610100808354040283529160200191612279565b820191905f5260205f20905b81548152906001019060200180831161225c57829003601f168201915b5050505050815260200160038201805461229290614092565b80601f01602080910402602001604051908101604052809291908181526020018280546122be90614092565b80156123095780601f106122e057610100808354040283529160200191612309565b820191905f5260205f20905b8154815290600101906020018083116122ec57829003601f168201915b5050505050815260200160048201805480602002602001604051908101604052809291908181526020015f905b828210156123de578382905f5260205f2001805461235390614092565b80601f016020809104026020016040519081016040528092919081815260200182805461237f90614092565b80156123ca5780601f106123a1576101008083540402835291602001916123ca565b820191905f5260205f20905b8154815290600101906020018083116123ad57829003601f168201915b505050505081526020019060010190612336565b505050508152602001600582015481526020016006820154815260200160078201805461240a90614092565b80601f016020809104026020016040519081016040528092919081815260200182805461243690614092565b80156124815780601f1061245857610100808354040283529160200191612481565b820191905f5260205f20905b81548152906001019060200180831161246457829003601f168201915b5050505050815260200160088201805461249a90614092565b80601f01602080910402602001604051908101604052809291908181526020018280546124c690614092565b80156125115780601f106124e857610100808354040283529160200191612511565b820191905f5260205f20905b8154815290600101906020018083116124f457829003601f168201915b50505050508152602001600982015f9054906101000a900460ff16151515158152602001600a8201805461254490614092565b80601f016020809104026020016040519081016040528092919081815260200182805461257090614092565b80156125bb5780601f10612592576101008083540402835291602001916125bb565b820191905f5260205f20905b81548152906001019060200180831161259e57829003601f168201915b50505050508152602001600b8201548152602001600c820154815250508282815181106125eb576125ea6146b7565b5b602002602001018190525080806126019061477a565b9150506120be565b50809250505090565b5f60025f8373ffffffffffffffffffffffffffffffffffffffff1673ffffffffffffffffffffffffffffffffffffffff1681526020019081526020015f20549050919050565b60405160200161266790614873565b6040516020818303038152906040528051906020012060038360405161268d9190614463565b9081526020016040518091039020600a016040516020016126ae9190614764565b6040516020818303038152906040528051906020012014801561275657505f15156003836040516126df9190614463565b90815260200160405180910390206009015f9054906101000a900460ff161515148061275557506001151560038360405161271a9190614463565b90815260200160405180910390206009015f9054906101000a900460ff1615151480156127545750600115156127508484612f15565b1515145b5b5b15612d6b576127653383613063565b156127a4577f0571c17fabdbebea862518abb447980c8b2af18b117ce124e8eb3c75a596112d604051612797906148d1565b60405180910390a1612da2565b5f600380846040516127b69190614463565b9081526020016040518091039020600601546127d291906144a6565b90505f6004826127e291906144d6565b6003856040516127f29190614463565b90815260200160405180910390206005015461280e91906144a6565b9050806004856040516128219190614463565b9081526020016040518091039020541080612869575081600261284491906144d6565b6003856040516128549190614463565b9081526020016040518091039020600c015410155b156128b35761287784612e88565b7f0571c17fabdbebea862518abb447980c8b2af18b117ce124e8eb3c75a596112d6040516128a490614939565b60405180910390a15050612da2565b6007846040516128c39190614463565b908152602001604051809103902083908060018154018082558091505060019003905f5260205f20015f909190919091509081612900919061435a565b506005846040516129119190614463565b908152602001604051809103902033908060018154018082558091505060019003905f5260205f20015f9091909190916101000a81548173ffffffffffffffffffffffffffffffffffffffff021916908373ffffffffffffffffffffffffffffffffffffffff16021790555060038460405161298d9190614463565b9081526020016040518091039020600c015f8154809291906129ae9061477a565b9190505550816003856040516129c49190614463565b9081526020016040518091039020600c01541015612b49573373ffffffffffffffffffffffffffffffffffffffff166108fc826002612a0391906144d6565b90811502906040515f60405180830381858888f19350505050158015612a2b573d5f803e3d5ffd5b50806002612a3991906144d6565b60025f3373ffffffffffffffffffffffffffffffffffffffff1673ffffffffffffffffffffffffffffffffffffffff1681526020019081526020015f205f828254612a84919061418a565b92505081905550806002612a9891906144d6565b600485604051612aa89190614463565b90815260200160405180910390205f828254612ac49190614157565b9250508190555081600385604051612adc9190614463565b9081526020016040518091039020600c015403612b1a5780600385604051612b049190614463565b9081526020016040518091039020600b01819055505b612b44600385604051612b2d9190614463565b908152602001604051809103902060040186613144565b612d2f565b81600385604051612b5a9190614463565b9081526020016040518091039020600c015410158015612ba65750816002612b8291906144d6565b600385604051612b929190614463565b9081526020016040518091039020600c0154105b15612d2e573373ffffffffffffffffffffffffffffffffffffffff166108fc8290811502906040515f60405180830381858888f19350505050158015612bee573d5f803e3d5ffd5b5080600485604051612c009190614463565b90815260200160405180910390205f828254612c1c9190614157565b925050819055508060025f3373ffffffffffffffffffffffffffffffffffffffff1673ffffffffffffffffffffffffffffffffffffffff1681526020019081526020015f205f828254612c6f919061418a565b92505081905550816002612c8391906144d6565b600385604051612c939190614463565b9081526020016040518091039020600c01541480612cce575080600485604051612cbd9190614463565b908152602001604051809103902054105b15612d03575f600385604051612ce49190614463565b9081526020016040518091039020600b0181905550612d0284612e88565b5b612d2d600385604051612d169190614463565b908152602001604051809103902060040186613144565b5b5b7f0571c17fabdbebea862518abb447980c8b2af18b117ce124e8eb3c75a596112d604051612d5c906149a1565b60405180910390a15050612da1565b7f0571c17fabdbebea862518abb447980c8b2af18b117ce124e8eb3c75a596112d604051612d9890614a09565b60405180910390a15b5b505050565b5f805f90505b600884604051612dbd9190614463565b908152602001604051809103902080549050811015612e7d578273ffffffffffffffffffffffffffffffffffffffff16600885604051612dfd9190614463565b90815260200160405180910390208281548110612e1d57612e1c6146b7565b5b905f5260205f20015f9054906101000a900473ffffffffffffffffffffffffffffffffffffffff1673ffffffffffffffffffffffffffffffffffffffff1603612e6a576001915050612e82565b8080612e759061477a565b915050612dad565b505f90505b92915050565b6040518060400160405280600581526020017f656e646564000000000000000000000000000000000000000000000000000000815250600382604051612ece9190614463565b9081526020016040518091039020600a019081612eeb919061435a565b505f600382604051612efd9190614463565b9081526020016040518091039020600b018190555050565b5f80600383604051612f279190614463565b9081526020016040518091039020600401805480602002602001604051908101604052809291908181526020015f905b82821015612fff578382905f5260205f20018054612f7490614092565b80601f0160208091040260200160405190810160405280929190818152602001828054612fa090614092565b8015612feb5780601f10612fc257610100808354040283529160200191612feb565b820191905f5260205f20905b815481529060010190602001808311612fce57829003601f168201915b505050505081526020019060010190612f57565b5050505090505f5b815181101561305757613034828281518110613026576130256146b7565b5b602002602001015186611f52565b156130445760019250505061305d565b808061304f9061477a565b915050613007565b505f9150505b92915050565b5f805f90505b6005836040516130799190614463565b908152602001604051809103902080549050811015613139578373ffffffffffffffffffffffffffffffffffffffff166005846040516130b99190614463565b908152602001604051809103902082815481106130d9576130d86146b7565b5b905f5260205f20015f9054906101000a900473ffffffffffffffffffffffffffffffffffffffff1673ffffffffffffffffffffffffffffffffffffffff160361312657600191505061313e565b80806131319061477a565b915050613069565b505f90505b92915050565b5f5b8280549050811015613299576131fd838281548110613168576131676146b7565b5b905f5260205f2001805461317b90614092565b80601f01602080910402602001604051908101604052809291908181526020018280546131a790614092565b80156131f25780601f106131c9576101008083540402835291602001916131f2565b820191905f5260205f20905b8154815290600101906020018083116131d557829003601f168201915b505050505083611f52565b156132865782600184805490506132149190614157565b81548110613225576132246146b7565b5b905f5260205f20018382815481106132405761323f6146b7565b5b905f5260205f200190816132549190614a4e565b508280548061326657613265614b33565b5b600190038181905f5260205f20015f61327f919061336f565b9055613299565b80806132919061477a565b915050613146565b505050565b828054828255905f5260205f209081019282156132e4579160200282015b828111156132e35782518290816132d3919061435a565b50916020019190600101906132bc565b5b5090506132f191906133ac565b5090565b604051806101a00160405280606081526020015f73ffffffffffffffffffffffffffffffffffffffff1681526020016060815260200160608152602001606081526020015f81526020015f815260200160608152602001606081526020015f15158152602001606081526020015f81526020015f81525090565b50805461337b90614092565b5f825580601f1061338c57506133a9565b601f0160209004905f5260205f20908101906133a891906133cf565b5b50565b5b808211156133cb575f81816133c2919061336f565b506001016133ad565b5090565b5b808211156133e6575f815f9055506001016133d0565b5090565b5f604051905090565b5f80fd5b5f80fd5b5f80fd5b5f80fd5b5f601f19601f8301169050919050565b7f4e487b71000000000000000000000000000000000000000000000000000000005f52604160045260245ffd5b61344982613403565b810181811067ffffffffffffffff8211171561346857613467613413565b5b80604052505050565b5f61347a6133ea565b90506134868282613440565b919050565b5f67ffffffffffffffff8211156134a5576134a4613413565b5b6134ae82613403565b9050602081019050919050565b828183375f83830152505050565b5f6134db6134d68461348b565b613471565b9050828152602081018484840111156134f7576134f66133ff565b5b6135028482856134bb565b509392505050565b5f82601f83011261351e5761351d6133fb565b5b813561352e8482602086016134c9565b91505092915050565b5f6020828403121561354c5761354b6133f3565b5b5f82013567ffffffffffffffff811115613569576135686133f7565b5b6135758482850161350a565b91505092915050565b5f81519050919050565b5f82825260208201905092915050565b5f5b838110156135b557808201518184015260208101905061359a565b5f8484015250505050565b5f6135ca8261357e565b6135d48185613588565b93506135e4818560208601613598565b6135ed81613403565b840191505092915050565b5f73ffffffffffffffffffffffffffffffffffffffff82169050919050565b5f613621826135f8565b9050919050565b61363181613617565b82525050565b5f819050919050565b61364981613637565b82525050565b5f8115159050919050565b6136638161364f565b82525050565b5f610180820190508181035f830152613682818f6135c0565b9050613691602083018e613628565b81810360408301526136a3818d6135c0565b905081810360608301526136b7818c6135c0565b90506136c6608083018b613640565b6136d360a083018a613640565b81810360c08301526136e581896135c0565b905081810360e08301526136f981886135c0565b905061370961010083018761365a565b81810361012083015261371c81866135c0565b905061372c610140830185613640565b61373a610160830184613640565b9d9c50505050505050505050505050565b61375481613637565b811461375e575f80fd5b50565b5f8135905061376f8161374b565b92915050565b5f806040838503121561378b5761378a6133f3565b5b5f83013567ffffffffffffffff8111156137a8576137a76133f7565b5b6137b48582860161350a565b92505060206137c585828601613761565b9150509250929050565b5f6020820190506137e25f830184613628565b92915050565b6137f18161364f565b81146137fb575f80fd5b50565b5f8135905061380c816137e8565b92915050565b5f67ffffffffffffffff82111561382c5761382b613413565b5b602082029050602081019050919050565b5f80fd5b5f61385361384e84613812565b613471565b905080838252602082019050602084028301858111156138765761387561383d565b5b835b818110156138bd57803567ffffffffffffffff81111561389b5761389a6133fb565b5b8086016138a8898261350a565b85526020850194505050602081019050613878565b5050509392505050565b5f82601f8301126138db576138da6133fb565b5b81356138eb848260208601613841565b91505092915050565b5f805f805f805f80610100898b031215613911576139106133f3565b5b5f89013567ffffffffffffffff81111561392e5761392d6133f7565b5b61393a8b828c0161350a565b985050602089013567ffffffffffffffff81111561395b5761395a6133f7565b5b6139678b828c0161350a565b975050604089013567ffffffffffffffff811115613988576139876133f7565b5b6139948b828c0161350a565b96505060606139a58b828c016137fe565b955050608089013567ffffffffffffffff8111156139c6576139c56133f7565b5b6139d28b828c016138c7565b94505060a06139e38b828c01613761565b93505060c089013567ffffffffffffffff811115613a0457613a036133f7565b5b613a108b828c0161350a565b92505060e089013567ffffffffffffffff811115613a3157613a306133f7565b5b613a3d8b828c0161350a565b9150509295985092959890939650565b5f602082019050613a605f830184613640565b92915050565b613a6f81613617565b8114613a79575f80fd5b50565b5f81359050613a8a81613a66565b92915050565b5f60208284031215613aa557613aa46133f3565b5b5f613ab284828501613a7c565b91505092915050565b5f6020820190508181035f830152613ad381846135c0565b905092915050565b5f81519050919050565b5f82825260208201905092915050565b5f819050602082019050919050565b5f82825260208201905092915050565b5f613b1e8261357e565b613b288185613b04565b9350613b38818560208601613598565b613b4181613403565b840191505092915050565b613b5581613617565b82525050565b5f81519050919050565b5f82825260208201905092915050565b5f819050602082019050919050565b5f613b8f8383613b14565b905092915050565b5f602082019050919050565b5f613bad82613b5b565b613bb78185613b65565b935083602082028501613bc985613b75565b805f5b85811015613c045784840389528151613be58582613b84565b9450613bf083613b97565b925060208a01995050600181019050613bcc565b50829750879550505050505092915050565b613c1f81613637565b82525050565b613c2e8161364f565b82525050565b5f6101a083015f8301518482035f860152613c4f8282613b14565b9150506020830151613c646020860182613b4c565b5060408301518482036040860152613c7c8282613b14565b91505060608301518482036060860152613c968282613b14565b91505060808301518482036080860152613cb08282613ba3565b91505060a0830151613cc560a0860182613c16565b5060c0830151613cd860c0860182613c16565b5060e083015184820360e0860152613cf08282613b14565b915050610100830151848203610100860152613d0c8282613b14565b915050610120830151613d23610120860182613c25565b50610140830151848203610140860152613d3d8282613b14565b915050610160830151613d54610160860182613c16565b50610180830151613d69610180860182613c16565b508091505092915050565b5f613d7f8383613c34565b905092915050565b5f602082019050919050565b5f613d9d82613adb565b613da78185613ae5565b935083602082028501613db985613af5565b805f5b85811015613df45784840389528151613dd58582613d74565b9450613de083613d87565b925060208a01995050600181019050613dbc565b50829750879550505050505092915050565b5f6020820190508181035f830152613e1e8184613d93565b905092915050565b5f60208284031215613e3b57613e3a6133f3565b5b5f613e4884828501613761565b91505092915050565b5f82825260208201905092915050565b5f613e6b82613b5b565b613e758185613e51565b935083602082028501613e8785613b75565b805f5b85811015613ec25784840389528151613ea38582613b84565b9450613eae83613b97565b925060208a01995050600181019050613e8a565b50829750879550505050505092915050565b5f6020820190508181035f830152613eec8184613e61565b905092915050565b5f8060408385031215613f0a57613f096133f3565b5b5f83013567ffffffffffffffff811115613f2757613f266133f7565b5b613f338582860161350a565b925050602083013567ffffffffffffffff811115613f5457613f536133f7565b5b613f608582860161350a565b9150509250929050565b5f602082019050613f7d5f83018461365a565b92915050565b5f8060408385031215613f9957613f986133f3565b5b5f613fa685828601613a7c565b9250506020613fb785828601613761565b9150509250929050565b5f805f60608486031215613fd857613fd76133f3565b5b5f84013567ffffffffffffffff811115613ff557613ff46133f7565b5b6140018682870161350a565b935050602084013567ffffffffffffffff811115614022576140216133f7565b5b61402e8682870161350a565b925050604084013567ffffffffffffffff81111561404f5761404e6133f7565b5b61405b8682870161350a565b9150509250925092565b7f4e487b71000000000000000000000000000000000000000000000000000000005f52602260045260245ffd5b5f60028204905060018216806140a957607f821691505b6020821081036140bc576140bb614065565b5b50919050565b7f496e73756666696369656e7420616d6f756e74000000000000000000000000005f82015250565b5f6140f6601383613588565b9150614101826140c2565b602082019050919050565b5f6020820190508181035f830152614123816140ea565b9050919050565b7f4e487b71000000000000000000000000000000000000000000000000000000005f52601160045260245ffd5b5f61416182613637565b915061416c83613637565b92508282039050818111156141845761418361412a565b5b92915050565b5f61419482613637565b915061419f83613637565b92508282019050808211156141b7576141b661412a565b5b92915050565b5f819050815f5260205f209050919050565b5f6020601f8301049050919050565b5f82821b905092915050565b5f600883026142197fffffffffffffffffffffffffffffffffffffffffffffffffffffffffffffffff826141de565b61422386836141de565b95508019841693508086168417925050509392505050565b5f819050919050565b5f61425e61425961425484613637565b61423b565b613637565b9050919050565b5f819050919050565b61427783614244565b61428b61428382614265565b8484546141ea565b825550505050565b5f90565b61429f614293565b6142aa81848461426e565b505050565b5b818110156142cd576142c25f82614297565b6001810190506142b0565b5050565b601f821115614312576142e3816141bd565b6142ec846141cf565b810160208510156142fb578190505b61430f614307856141cf565b8301826142af565b50505b505050565b5f82821c905092915050565b5f6143325f1984600802614317565b1980831691505092915050565b5f61434a8383614323565b9150826002028217905092915050565b6143638261357e565b67ffffffffffffffff81111561437c5761437b613413565b5b6143868254614092565b6143918282856142d1565b5f60209050601f8311600181146143c2575f84156143b0578287015190505b6143ba858261433f565b865550614421565b601f1984166143d0866141bd565b5f5b828110156143f7578489015182556001820191506020850194506020810190506143d2565b868310156144145784890151614410601f891682614323565b8355505b6001600288020188555050505b505050505050565b5f81905092915050565b5f61443d8261357e565b6144478185614429565b9350614457818560208601613598565b80840191505092915050565b5f61446e8284614433565b915081905092915050565b7f4e487b71000000000000000000000000000000000000000000000000000000005f52601260045260245ffd5b5f6144b082613637565b91506144bb83613637565b9250826144cb576144ca614479565b5b828204905092915050565b5f6144e082613637565b91506144eb83613637565b92508282026144f981613637565b915082820484148315176145105761450f61412a565b5b5092915050565b7f50726f64756374204372656174656400000000000000000000000000000000005f82015250565b5f61454b600f83613588565b915061455682614517565b602082019050919050565b5f6020820190508181035f8301526145788161453f565b9050919050565b7f50726f64756374206973206e6f74206f6e676f696e67000000000000000000005f82015250565b5f6145b3601683613588565b91506145be8261457f565b602082019050919050565b5f6020820190508181035f8301526145e0816145a7565b9050919050565b7f43616c6c6572206973206e6f74207468652070726f64756374206f776e6572005f82015250565b5f61461b601f83613588565b9150614626826145e7565b602082019050919050565b5f6020820190508181035f8301526146488161460f565b9050919050565b7f526566756e64656420746865206d6f6e657900000000000000000000000000005f82015250565b5f614683601283613588565b915061468e8261464f565b602082019050919050565b5f6020820190508181035f8301526146b081614677565b9050919050565b7f4e487b71000000000000000000000000000000000000000000000000000000005f52603260045260245ffd5b5f81546146f081614092565b6146fa8186614429565b9450600182165f811461471457600181146147295761475b565b60ff198316865281151582028601935061475b565b614732856141bd565b5f5b8381101561475357815481890152600182019150602081019050614734565b838801955050505b50505092915050565b5f61476f82846146e4565b915081905092915050565b5f61478482613637565b91507fffffffffffffffffffffffffffffffffffffffffffffffffffffffffffffffff82036147b6576147b561412a565b5b600182019050919050565b7f52657669657720626f75676874000000000000000000000000000000000000005f82015250565b5f6147f5600d83613588565b9150614800826147c1565b602082019050919050565b5f6020820190508181035f830152614822816147e9565b9050919050565b7f6f6e676f696e67000000000000000000000000000000000000000000000000005f82015250565b5f61485d600783614429565b915061486882614829565b600782019050919050565b5f61487d82614851565b9150819050919050565b7f52657669657765722068617320616c72656164792072657669657765640000005f82015250565b5f6148bb601d83613588565b91506148c682614887565b602082019050919050565b5f6020820190508181035f8301526148e8816148af565b9050919050565b7f50726f6475637420686173206e6f206d6f6e6579206c656674000000000000005f82015250565b5f614923601983613588565b915061492e826148ef565b602082019050919050565b5f6020820190508181035f83015261495081614917565b9050919050565b7f52657669657720616464656400000000000000000000000000000000000000005f82015250565b5f61498b600c83613588565b915061499682614957565b602082019050919050565b5f6020820190508181035f8301526149b88161497f565b9050919050565b7f50726f64756374206e6f7420666f756e640000000000000000000000000000005f82015250565b5f6149f3601183613588565b91506149fe826149bf565b602082019050919050565b5f6020820190508181035f830152614a20816149e7565b9050919050565b5f81549050614a3581614092565b9050919050565b5f819050815f5260205f209050919050565b818103614a5c575050614b31565b614a6582614a27565b67ffffffffffffffff811115614a7e57614a7d613413565b5b614a888254614092565b614a938282856142d1565b5f601f831160018114614ac0575f8415614aae578287015490505b614ab8858261433f565b865550614b2a565b601f198416614ace87614a3c565b9650614ad9866141bd565b5f5b82811015614b0057848901548255600182019150600185019450602081019050614adb565b86831015614b1d5784890154614b19601f891682614323565b8355505b6001600288020188555050505b5050505050505b565b7f4e487b71000000000000000000000000000000000000000000000000000000005f52603160045260245ffdfea2646970667358221220a4053974879da6f98a2b12b2c418ace6e2ec8e2fc3458966390c9744d9e418f664736f6c63430008140033",
  "immutableReferences": {},
  "source": "// SPDX-License-Identifier: MIT\npragma solidity ^0.8.20;\n\ncontract MoneyDistribution {\n    struct AllDetails {\n        string id;\n        address owner;\n        string name;\n        string prodimg;\n        string[] orderIDs;\n        uint amt;\n        uint min_review_count;\n        string prod_Details;\n        string company_name;\n        bool typ;\n        string status;\n        uint nextAmount;\n        uint reviewCount;\n    }\n\n    string[] public allProduct;\n    string[] public finishedProduct;\n    mapping(address => uint) public overallProfit;\n    mapping(string => AllDetails) public products;\n    mapping(string => uint) public moneyLeft;\n    mapping(string => address[]) public reviewers;\n    mapping(address => string[]) public ownproducts;\n    mapping(string => string[]) public reviews;\n    mapping(string => address[]) public prodAccess;\n    address public owner;\n    uint public ourBalance;\n\n    constructor() {\n        owner = msg.sender;\n    }\n\n    modifier onlyOwner() {\n        require(msg.sender == owner, \"Not the contract owner\");\n        _;\n    }\n\n    receive() external payable {}\n\n    event event1(string message);\n\n    function NewProduct(\n        string memory prodID,\n        string memory prodimg,\n        string memory name,\n        bool t,\n        string[] memory orderIDs,\n        uint min_review_count,\n        string memory prod_Details,\n        string memory company_name\n    ) public payable {        \n        if (msg.value < 100) {\n            emit event1(\"Insufficient amount\");\n            return;\n        }\n\n        uint amt = msg.value - 100;\n        ourBalance += 100;\n        payable(0xb4F10CF4303F864bC564FDd37b639FdC0842aD57).transfer(100);\n\n        allProduct.push(prodID);\n        moneyLeft[prodID] = amt;\n        products[prodID] = AllDetails({\n            id: prodID,\n            owner: msg.sender,\n            name: name,\n            prodimg: prodimg,\n            orderIDs: orderIDs,\n            amt: amt,\n            min_review_count: min_review_count,\n            prod_Details: prod_Details,\n            company_name: company_name,\n            typ: t,\n            status: \"ongoing\",\n            nextAmount: 0,\n            reviewCount: 0\n        });\n\n        uint x = min_review_count / 3;\n        products[prodID].nextAmount = (amt / (x * 4)) * 2;\n        \n        ownproducts[msg.sender].push(prodID);\n        prodAccess[prodID].push(msg.sender);\n\n        emit event1(\"Product Created\");\n    }\n\n    function NewReview(string memory orderID, string memory prodID, string memory review) public payable {\n        if ((keccak256(abi.encodePacked(products[prodID].status)) == keccak256(abi.encodePacked(\"ongoing\"))) && ((products[prodID].typ == false) || (products[prodID].typ == true && isOrderIDValid(orderID, prodID) == true))) {        \n            if (hasReviewed(msg.sender, prodID)) {\n                emit event1(\"Reviewer has already reviewed\");\n                return;\n            }\n            uint x = products[prodID].min_review_count / 3;\n            uint y = products[prodID].amt / (x * 4);\n            if (moneyLeft[prodID] < y || products[prodID].reviewCount >= 2 * x) {   \n                endProduct(prodID);\n                emit event1(\"Product has no money left\");\n                return;\n            }\n            reviews[prodID].push(review);\n            reviewers[prodID].push(msg.sender);\n            products[prodID].reviewCount ++;\n            if (products[prodID].reviewCount < x) {\n                payable(msg.sender).transfer(2 * y);\n                overallProfit[msg.sender] += 2 * y;\n                moneyLeft[prodID] -= 2 * y;\n                if (products[prodID].reviewCount == x) {\n                    products[prodID].nextAmount = y;\n                }\n                removeFromArray(products[prodID].orderIDs, orderID);\n            } else if (products[prodID].reviewCount >= x && products[prodID].reviewCount < 2 * x) {\n                payable(msg.sender).transfer(y);\n                moneyLeft[prodID] -= y;\n                overallProfit[msg.sender] += y;\n                if (products[prodID].reviewCount == 2 * x || moneyLeft[prodID] < y) {\n                    products[prodID].nextAmount = 0;\n                    endProduct(prodID);\n                }\n                removeFromArray(products[prodID].orderIDs, orderID);\n            }        \n            emit event1(\"Review added\");\n        } else {\n            emit event1(\"Product not found\");\n        }\n    }\n    function Refund(string memory prodID) public payable{\n        require(compareStrings(products[prodID].status,\"ongoing\"), \"Product is not ongoing\");\n        require(isProductOwner(prodID, msg.sender), \"Caller is not the product owner\");\n\n        uint refundAmount = moneyLeft[prodID];\n        moneyLeft[prodID] = 0;\n        payable(msg.sender).transfer(refundAmount);\n        endProduct(prodID);\n\n        emit event1(\"Refunded the money\");\n    }\n\n    function getProducts() public view returns (AllDetails[] memory) {\n        uint totalLength = allProduct.length;\n        AllDetails[] memory allProducts = new AllDetails[](totalLength);\n        for (uint i = 0; i < allProduct.length; i++) {\n            allProducts[i] = products[allProduct[i]];\n        }\n        return allProducts;\n    }\n\n    function getAllProductbyOwner() public view returns (AllDetails[] memory) {\n        uint totalLength = ownproducts[msg.sender].length;\n        AllDetails[] memory allProducts = new AllDetails[](totalLength);\n        for (uint i = 0; i < ownproducts[msg.sender].length; i++) {\n            allProducts[i] = products[ownproducts[msg.sender][i]];\n        }\n\n        return allProducts;\n    }\n\n    function getReview(string memory prodID) public view returns (string[] memory) {\n        address addr=msg.sender;\n        require(isProductOwner(prodID, addr), \"Caller is not the product owner\");\n        return reviews[prodID];\n    }\n\n    function BuyReview(string memory prodID) public payable{\n        uint amt= msg.value;\n        if (amt < 2 * products[prodID].amt) {\n            emit event1(\"Insufficient amount\");\n            return;\n        }\n\n        address adr = msg.sender;\n        uint ourProf = amt / 3;\n        uint ownerProf = amt / 3;\n        uint eachProf = amt - ourProf- ownerProf;\n        payable(products[prodID].owner).transfer(ownerProf);\n        for (uint i = 0; i < reviewers[prodID].length; i++) {\n            payable(reviewers[prodID][i]).transfer(eachProf / reviewers[prodID].length);\n            overallProfit[reviewers[prodID][i]] += eachProf / reviewers[prodID].length;\n        }\n\n        ourBalance += ourProf;\n        payable(owner).transfer(ourProf);\n\n        prodAccess[prodID].push(adr);\n        ownproducts[msg.sender].push(prodID);\n\n        emit event1(\"Review bought\");\n    }\n\n    function getProfit(address addr) public view returns (uint) {\n        return overallProfit[addr];\n    }\n\n    function isOrderIDValid(string memory orderID, string memory prodID) internal view returns (bool) {\n        string[] memory orderIDs = products[prodID].orderIDs;\n        for (uint i = 0; i < orderIDs.length; i++) {\n            if (compareStrings(orderIDs[i], orderID)) {\n                return true;\n            }\n        }\n        return false;\n    }\n\n    function compareStrings(string memory a, string memory b) public pure returns (bool) {\n        return keccak256(abi.encodePacked(a)) == keccak256(abi.encodePacked(b));\n    }\n\n    function hasReviewed(address reviewer, string memory prodID) internal view returns (bool) {\n        for (uint i = 0; i < reviewers[prodID].length; i++) {\n            if (reviewers[prodID][i] == reviewer) {\n                return true;\n            }\n        }\n        return false;\n    }\n\n    function isProductOwner(string memory prodID, address addr) internal view returns (bool) {\n        for (uint i = 0; i < prodAccess[prodID].length; i++) {\n            if (prodAccess[prodID][i] == addr) {\n                return true;\n            }\n        }\n        return false;\n    }\n\n    function endProduct(string memory prodID) internal {\n        products[prodID].status = \"ended\";\n        products[prodID].nextAmount = 0;\n    }\n\n    function removeFromArray(string[] storage array, string memory value) internal {\n        for (uint i = 0; i < array.length; i++) {\n            if (compareStrings(array[i], value)) {\n                array[i] = array[array.length - 1];\n                array.pop();\n                break;\n            }\n        }\n    }\n}\n",
  "sourcePath": "D:\\codes\\flow1\\Solidity\\contracts\\Migrations.sol",
  "compiler": {
    "name": "solc",
    "version": "0.8.20+commit.a1b79de6.Emscripten.clang"
  },
  "schemaVersion": "3.4.16",
  "updatedAt": "2024-06-29T10:00:00.447Z",
  "networkType": "ethereum",
  "devdoc": {
    "kind": "dev",
    "methods": {},
    "version": 1
  },
  "userdoc": {
    "kind": "user",
    "methods": {},
    "version": 1
  }
}