{
  "contractName": "MoneyDistribution",
  "abi": [
    {
      "inputs": [],
      "stateMutability": "nonpayable",
      "type": "constructor"
    },
    {
      "anonymous": false,
      "inputs": [
        {
          "indexed": false,
          "internalType": "string",
          "name": "message",
          "type": "string"
        }
      ],
      "name": "event1",
      "type": "event"
    },
    {
      "inputs": [
        {
          "internalType": "uint256",
          "name": "",
          "type": "uint256"
        }
      ],
      "name": "allProduct",
      "outputs": [
        {
          "internalType": "string",
          "name": "",
          "type": "string"
        }
      ],
      "stateMutability": "view",
      "type": "function",
      "constant": true
    },
    {
      "inputs": [
        {
          "internalType": "uint256",
          "name": "",
          "type": "uint256"
        }
      ],
      "name": "finishedProduct",
      "outputs": [
        {
          "internalType": "string",
          "name": "",
          "type": "string"
        }
      ],
      "stateMutability": "view",
      "type": "function",
      "constant": true
    },
    {
      "inputs": [
        {
          "internalType": "string",
          "name": "",
          "type": "string"
        }
      ],
      "name": "moneyLeft",
      "outputs": [
        {
          "internalType": "uint256",
          "name": "",
          "type": "uint256"
        }
      ],
      "stateMutability": "view",
      "type": "function",
      "constant": true
    },
    {
      "inputs": [],
      "name": "ourBalance",
      "outputs": [
        {
          "internalType": "uint256",
          "name": "",
          "type": "uint256"
        }
      ],
      "stateMutability": "view",
      "type": "function",
      "constant": true
    },
    {
      "inputs": [
        {
          "internalType": "address",
          "name": "",
          "type": "address"
        }
      ],
      "name": "overallProfit",
      "outputs": [
        {
          "internalType": "uint256",
          "name": "",
          "type": "uint256"
        }
      ],
      "stateMutability": "view",
      "type": "function",
      "constant": true
    },
    {
      "inputs": [],
      "name": "owner",
      "outputs": [
        {
          "internalType": "address",
          "name": "",
          "type": "address"
        }
      ],
      "stateMutability": "view",
      "type": "function",
      "constant": true
    },
    {
      "inputs": [
        {
          "internalType": "address",
          "name": "",
          "type": "address"
        },
        {
          "internalType": "uint256",
          "name": "",
          "type": "uint256"
        }
      ],
      "name": "ownproducts",
      "outputs": [
        {
          "internalType": "string",
          "name": "",
          "type": "string"
        }
      ],
      "stateMutability": "view",
      "type": "function",
      "constant": true
    },
    {
      "inputs": [
        {
          "internalType": "string",
          "name": "",
          "type": "string"
        },
        {
          "internalType": "uint256",
          "name": "",
          "type": "uint256"
        }
      ],
      "name": "prodAccess",
      "outputs": [
        {
          "internalType": "address",
          "name": "",
          "type": "address"
        }
      ],
      "stateMutability": "view",
      "type": "function",
      "constant": true
    },
    {
      "inputs": [
        {
          "internalType": "string",
          "name": "",
          "type": "string"
        }
      ],
      "name": "products",
      "outputs": [
        {
          "internalType": "string",
          "name": "id",
          "type": "string"
        },
        {
          "internalType": "address",
          "name": "owner",
          "type": "address"
        },
        {
          "internalType": "string",
          "name": "name",
          "type": "string"
        },
        {
          "internalType": "string",
          "name": "prodimg",
          "type": "string"
        },
        {
          "internalType": "uint256",
          "name": "amt",
          "type": "uint256"
        },
        {
          "internalType": "uint256",
          "name": "min_review_count",
          "type": "uint256"
        },
        {
          "internalType": "string",
          "name": "prod_Details",
          "type": "string"
        },
        {
          "internalType": "string",
          "name": "company_name",
          "type": "string"
        },
        {
          "internalType": "bool",
          "name": "typ",
          "type": "bool"
        },
        {
          "internalType": "string",
          "name": "status",
          "type": "string"
        },
        {
          "internalType": "uint256",
          "name": "nextAmount",
          "type": "uint256"
        },
        {
          "internalType": "uint256",
          "name": "reviewCount",
          "type": "uint256"
        }
      ],
      "stateMutability": "view",
      "type": "function",
      "constant": true
    },
    {
      "inputs": [
        {
          "internalType": "string",
          "name": "",
          "type": "string"
        },
        {
          "internalType": "uint256",
          "name": "",
          "type": "uint256"
        }
      ],
      "name": "reviewers",
      "outputs": [
        {
          "internalType": "address",
          "name": "",
          "type": "address"
        }
      ],
      "stateMutability": "view",
      "type": "function",
      "constant": true
    },
    {
      "inputs": [
        {
          "internalType": "string",
          "name": "",
          "type": "string"
        },
        {
          "internalType": "uint256",
          "name": "",
          "type": "uint256"
        }
      ],
      "name": "reviews",
      "outputs": [
        {
          "internalType": "string",
          "name": "",
          "type": "string"
        }
      ],
      "stateMutability": "view",
      "type": "function",
      "constant": true
    },
    {
      "stateMutability": "payable",
      "type": "receive",
      "payable": true
    },
    {
      "inputs": [
        {
          "internalType": "string",
          "name": "prodID",
          "type": "string"
        },
        {
          "internalType": "string",
          "name": "prodimg",
          "type": "string"
        },
        {
          "internalType": "string",
          "name": "name",
          "type": "string"
        },
        {
          "internalType": "bool",
          "name": "t",
          "type": "bool"
        },
        {
          "internalType": "string[]",
          "name": "orderIDs",
          "type": "string[]"
        },
        {
          "internalType": "uint256",
          "name": "min_review_count",
          "type": "uint256"
        },
        {
          "internalType": "string",
          "name": "prod_Details",
          "type": "string"
        },
        {
          "internalType": "string",
          "name": "company_name",
          "type": "string"
        }
      ],
      "name": "NewProduct",
      "outputs": [],
      "stateMutability": "payable",
      "type": "function",
      "payable": true
    },
    {
      "inputs": [
        {
          "internalType": "string",
          "name": "orderID",
          "type": "string"
        },
        {
          "internalType": "string",
          "name": "prodID",
          "type": "string"
        },
        {
          "internalType": "string",
          "name": "review",
          "type": "string"
        }
      ],
      "name": "NewReview",
      "outputs": [],
      "stateMutability": "payable",
      "type": "function",
      "payable": true
    },
    {
      "inputs": [
        {
          "internalType": "string",
          "name": "prodID",
          "type": "string"
        }
      ],
      "name": "Refund",
      "outputs": [],
      "stateMutability": "payable",
      "type": "function",
      "payable": true
    },
    {
      "inputs": [],
      "name": "getProducts",
      "outputs": [
        {
          "components": [
            {
              "internalType": "string",
              "name": "id",
              "type": "string"
            },
            {
              "internalType": "address",
              "name": "owner",
              "type": "address"
            },
            {
              "internalType": "string",
              "name": "name",
              "type": "string"
            },
            {
              "internalType": "string",
              "name": "prodimg",
              "type": "string"
            },
            {
              "internalType": "string[]",
              "name": "orderIDs",
              "type": "string[]"
            },
            {
              "internalType": "uint256",
              "name": "amt",
              "type": "uint256"
            },
            {
              "internalType": "uint256",
              "name": "min_review_count",
              "type": "uint256"
            },
            {
              "internalType": "string",
              "name": "prod_Details",
              "type": "string"
            },
            {
              "internalType": "string",
              "name": "company_name",
              "type": "string"
            },
            {
              "internalType": "bool",
              "name": "typ",
              "type": "bool"
            },
            {
              "internalType": "string",
              "name": "status",
              "type": "string"
            },
            {
              "internalType": "uint256",
              "name": "nextAmount",
              "type": "uint256"
            },
            {
              "internalType": "uint256",
              "name": "reviewCount",
              "type": "uint256"
            }
          ],
          "internalType": "struct MoneyDistribution.AllDetails[]",
          "name": "",
          "type": "tuple[]"
        }
      ],
      "stateMutability": "view",
      "type": "function",
      "constant": true
    },
    {
      "inputs": [],
      "name": "getAllProductbyOwner",
      "outputs": [
        {
          "components": [
            {
              "internalType": "string",
              "name": "id",
              "type": "string"
            },
            {
              "internalType": "address",
              "name": "owner",
              "type": "address"
            },
            {
              "internalType": "string",
              "name": "name",
              "type": "string"
            },
            {
              "internalType": "string",
              "name": "prodimg",
              "type": "string"
            },
            {
              "internalType": "string[]",
              "name": "orderIDs",
              "type": "string[]"
            },
            {
              "internalType": "uint256",
              "name": "amt",
              "type": "uint256"
            },
            {
              "internalType": "uint256",
              "name": "min_review_count",
              "type": "uint256"
            },
            {
              "internalType": "string",
              "name": "prod_Details",
              "type": "string"
            },
            {
              "internalType": "string",
              "name": "company_name",
              "type": "string"
            },
            {
              "internalType": "bool",
              "name": "typ",
              "type": "bool"
            },
            {
              "internalType": "string",
              "name": "status",
              "type": "string"
            },
            {
              "internalType": "uint256",
              "name": "nextAmount",
              "type": "uint256"
            },
            {
              "internalType": "uint256",
              "name": "reviewCount",
              "type": "uint256"
            }
          ],
          "internalType": "struct MoneyDistribution.AllDetails[]",
          "name": "",
          "type": "tuple[]"
        }
      ],
      "stateMutability": "view",
      "type": "function",
      "constant": true
    },
    {
      "inputs": [
        {
          "internalType": "string",
          "name": "prodID",
          "type": "string"
        },
        {
          "internalType": "address",
          "name": "addr",
          "type": "address"
        }
      ],
      "name": "getReview",
      "outputs": [
        {
          "internalType": "string[]",
          "name": "",
          "type": "string[]"
        }
      ],
      "stateMutability": "view",
      "type": "function",
      "constant": true
    },
    {
      "inputs": [
        {
          "internalType": "string",
          "name": "prodID",
          "type": "string"
        },
        {
          "internalType": "uint256",
          "name": "amt",
          "type": "uint256"
        }
      ],
      "name": "BuyReview",
      "outputs": [],
      "stateMutability": "nonpayable",
      "type": "function"
    },
    {
      "inputs": [
        {
          "internalType": "address",
          "name": "addr",
          "type": "address"
        }
      ],
      "name": "getProfit",
      "outputs": [
        {
          "internalType": "uint256",
          "name": "",
          "type": "uint256"
        }
      ],
      "stateMutability": "view",
      "type": "function",
      "constant": true
    },
    {
      "inputs": [
        {
          "internalType": "string",
          "name": "a",
          "type": "string"
        },
        {
          "internalType": "string",
          "name": "b",
          "type": "string"
        }
      ],
      "name": "compareStrings",
      "outputs": [
        {
          "internalType": "bool",
          "name": "",
          "type": "bool"
        }
      ],
      "stateMutability": "pure",
      "type": "function",
      "constant": true
    }
  ],
  "bytecode": "0x608060405234801561000f575f80fd5b503360095f6101000a81548173ffffffffffffffffffffffffffffffffffffffff021916908373ffffffffffffffffffffffffffffffffffffffff160217905550614b5f8061005d5f395ff3fe608060405260043610610122575f3560e01c8063817ab4c71161009f578063bed34bba11610063578063bed34bba14610432578063c1153c311461046e578063c29b2f20146104aa578063c600e1dc146104d4578063ea6471ae1461051057610129565b8063817ab4c71461032c5780638249be8c146103545780638da5cb5b1461039057806399d1a60f146103ba578063adad41cd146103f657610129565b806352da993e116100e657806352da993e14610212578063697582621461024e5780637144dbea1461028a57806371f5e27c146102c65780638171166b1461030257610129565b80630186a4231461012d578063039f573e1461017457806306ac9565146101b0578063199c4fb4146101cc578063233b9a63146101e857610129565b3661012957005b5f80fd5b348015610138575f80fd5b50610153600480360381019061014e91906134a6565b61052c565b60405161016b9c9b9a999897969594939291906135d8565b60405180910390f35b34801561017f575f80fd5b5061019a600480360381019061019591906136e4565b6108ef565b6040516101a7919061373e565b60405180910390f35b6101ca60048036038101906101c59190613863565b61094f565b005b6101e660048036038101906101e191906134a6565b610de3565b005b3480156101f3575f80fd5b506101fc61101c565b60405161020991906139bc565b60405180910390f35b34801561021d575f80fd5b50610238600480360381019061023391906136e4565b611022565b604051610245919061373e565b60405180910390f35b348015610259575f80fd5b50610274600480360381019061026f91906139ff565b611082565b60405161028191906139bc565b60405180910390f35b348015610295575f80fd5b506102b060048036038101906102ab91906134a6565b611097565b6040516102bd91906139bc565b60405180910390f35b3480156102d1575f80fd5b506102ec60048036038101906102e791906136e4565b6110c4565b6040516102f99190613a2a565b60405180910390f35b34801561030d575f80fd5b5061031661118d565b6040516103239190613d75565b60405180910390f35b348015610337575f80fd5b50610352600480360381019061034d91906136e4565b6117f8565b005b34801561035f575f80fd5b5061037a60048036038101906103759190613d95565b611c15565b6040516103879190613e72565b60405180910390f35b34801561039b575f80fd5b506103a4611d51565b6040516103b1919061373e565b60405180910390f35b3480156103c5575f80fd5b506103e060048036038101906103db9190613e92565b611d76565b6040516103ed9190613a2a565b60405180910390f35b348015610401575f80fd5b5061041c60048036038101906104179190613e92565b611e1c565b6040516104299190613a2a565b60405180910390f35b34801561043d575f80fd5b5061045860048036038101906104539190613ebd565b611ec1565b6040516104659190613f33565b60405180910390f35b348015610479575f80fd5b50610494600480360381019061048f9190613f4c565b611f19565b6040516104a19190613a2a565b60405180910390f35b3480156104b5575f80fd5b506104be611fca565b6040516104cb9190613d75565b60405180910390f35b3480156104df575f80fd5b506104fa60048036038101906104f591906139ff565b612581565b60405161050791906139bc565b60405180910390f35b61052a60048036038101906105259190613f8a565b6125c7565b005b6003818051602081018201805184825260208301602085012081835280955050505050505f91509050805f0180546105639061405b565b80601f016020809104026020016040519081016040528092919081815260200182805461058f9061405b565b80156105da5780601f106105b1576101008083540402835291602001916105da565b820191905f5260205f20905b8154815290600101906020018083116105bd57829003601f168201915b505050505090806001015f9054906101000a900473ffffffffffffffffffffffffffffffffffffffff16908060020180546106149061405b565b80601f01602080910402602001604051908101604052809291908181526020018280546106409061405b565b801561068b5780601f106106625761010080835404028352916020019161068b565b820191905f5260205f20905b81548152906001019060200180831161066e57829003601f168201915b5050505050908060030180546106a09061405b565b80601f01602080910402602001604051908101604052809291908181526020018280546106cc9061405b565b80156107175780601f106106ee57610100808354040283529160200191610717565b820191905f5260205f20905b8154815290600101906020018083116106fa57829003601f168201915b5050505050908060050154908060060154908060070180546107389061405b565b80601f01602080910402602001604051908101604052809291908181526020018280546107649061405b565b80156107af5780601f10610786576101008083540402835291602001916107af565b820191905f5260205f20905b81548152906001019060200180831161079257829003601f168201915b5050505050908060080180546107c49061405b565b80601f01602080910402602001604051908101604052809291908181526020018280546107f09061405b565b801561083b5780601f106108125761010080835404028352916020019161083b565b820191905f5260205f20905b81548152906001019060200180831161081e57829003601f168201915b505050505090806009015f9054906101000a900460ff169080600a0180546108629061405b565b80601f016020809104026020016040519081016040528092919081815260200182805461088e9061405b565b80156108d95780601f106108b0576101008083540402835291602001916108d9565b820191905f5260205f20905b8154815290600101906020018083116108bc57829003601f168201915b50505050509080600b01549080600c015490508c565b6005828051602081018201805184825260208301602085012081835280955050505050508181548110610920575f80fd5b905f5260205f20015f915091509054906101000a900473ffffffffffffffffffffffffffffffffffffffff1681565b6064341015610992577f0571c17fabdbebea862518abb447980c8b2af18b117ce124e8eb3c75a596112d604051610985906140d5565b60405180910390a1610dd9565b5f6064346109a09190614120565b90506064600a5f8282546109b49190614153565b9250508190555073b4f10cf4303f864bc564fdd37b639fdc0842ad5773ffffffffffffffffffffffffffffffffffffffff166108fc606490811502906040515f60405180830381858888f19350505050158015610a13573d5f803e3d5ffd5b505f89908060018154018082558091505060019003905f5260205f20015f909190919091509081610a449190614323565b508060048a604051610a56919061442c565b908152602001604051809103902081905550604051806101a001604052808a81526020013373ffffffffffffffffffffffffffffffffffffffff16815260200188815260200189815260200186815260200182815260200185815260200184815260200183815260200187151581526020016040518060400160405280600781526020017f6f6e676f696e670000000000000000000000000000000000000000000000000081525081526020015f81526020015f81525060038a604051610b1d919061442c565b90815260200160405180910390205f820151815f019081610b3e9190614323565b506020820151816001015f6101000a81548173ffffffffffffffffffffffffffffffffffffffff021916908373ffffffffffffffffffffffffffffffffffffffff1602179055506040820151816002019081610b9a9190614323565b506060820151816003019081610bb09190614323565b506080820151816004019080519060200190610bcd92919061320d565b5060a0820151816005015560c0820151816006015560e0820151816007019081610bf79190614323565b50610100820151816008019081610c0e9190614323565b50610120820151816009015f6101000a81548160ff02191690831515021790555061014082015181600a019081610c459190614323565b5061016082015181600b015561018082015181600c01559050505f600385610c6d919061446f565b90506002600482610c7e919061449f565b83610c89919061446f565b610c93919061449f565b60038b604051610ca3919061442c565b9081526020016040518091039020600b018190555060065f3373ffffffffffffffffffffffffffffffffffffffff1673ffffffffffffffffffffffffffffffffffffffff1681526020019081526020015f208a908060018154018082558091505060019003905f5260205f20015f909190919091509081610d249190614323565b5060088a604051610d35919061442c565b908152602001604051809103902033908060018154018082558091505060019003905f5260205f20015f9091909190916101000a81548173ffffffffffffffffffffffffffffffffffffffff021916908373ffffffffffffffffffffffffffffffffffffffff1602179055507f0571c17fabdbebea862518abb447980c8b2af18b117ce124e8eb3c75a596112d604051610dce9061452a565b60405180910390a150505b5050505050505050565b610ec9600382604051610df6919061442c565b9081526020016040518091039020600a018054610e129061405b565b80601f0160208091040260200160405190810160405280929190818152602001828054610e3e9061405b565b8015610e895780601f10610e6057610100808354040283529160200191610e89565b820191905f5260205f20905b815481529060010190602001808311610e6c57829003601f168201915b50505050506040518060400160405280600781526020017f6f6e676f696e6700000000000000000000000000000000000000000000000000815250611ec1565b610f08576040517f08c379a0000000000000000000000000000000000000000000000000000000008152600401610eff90614592565b60405180910390fd5b610f128133612d16565b610f51576040517f08c379a0000000000000000000000000000000000000000000000000000000008152600401610f48906145fa565b60405180910390fd5b5f600482604051610f62919061442c565b90815260200160405180910390205490505f600483604051610f84919061442c565b9081526020016040518091039020819055503373ffffffffffffffffffffffffffffffffffffffff166108fc8290811502906040515f60405180830381858888f19350505050158015610fd9573d5f803e3d5ffd5b50610fe382612df7565b7f0571c17fabdbebea862518abb447980c8b2af18b117ce124e8eb3c75a596112d60405161101090614662565b60405180910390a15050565b600a5481565b6008828051602081018201805184825260208301602085012081835280955050505050508181548110611053575f80fd5b905f5260205f20015f915091509054906101000a900473ffffffffffffffffffffffffffffffffffffffff1681565b6002602052805f5260405f205f915090505481565b6004818051602081018201805184825260208301602085012081835280955050505050505f915090505481565b60078280516020810182018051848252602083016020850120818352809550505050505081815481106110f5575f80fd5b905f5260205f20015f9150915050805461110e9061405b565b80601f016020809104026020016040519081016040528092919081815260200182805461113a9061405b565b80156111855780601f1061115c57610100808354040283529160200191611185565b820191905f5260205f20905b81548152906001019060200180831161116857829003601f168201915b505050505081565b60605f60065f3373ffffffffffffffffffffffffffffffffffffffff1673ffffffffffffffffffffffffffffffffffffffff1681526020019081526020015f208054905090505f8167ffffffffffffffff8111156111ee576111ed613382565b5b60405190808252806020026020018201604052801561122757816020015b611214613264565b81526020019060019003908161120c5790505b5090505f5b60065f3373ffffffffffffffffffffffffffffffffffffffff1673ffffffffffffffffffffffffffffffffffffffff1681526020019081526020015f20805490508110156117ef57600360065f3373ffffffffffffffffffffffffffffffffffffffff1673ffffffffffffffffffffffffffffffffffffffff1681526020019081526020015f2082815481106112c5576112c4614680565b5b905f5260205f20016040516112da919061472d565b9081526020016040518091039020604051806101a00160405290815f820180546113039061405b565b80601f016020809104026020016040519081016040528092919081815260200182805461132f9061405b565b801561137a5780601f106113515761010080835404028352916020019161137a565b820191905f5260205f20905b81548152906001019060200180831161135d57829003601f168201915b50505050508152602001600182015f9054906101000a900473ffffffffffffffffffffffffffffffffffffffff1673ffffffffffffffffffffffffffffffffffffffff1673ffffffffffffffffffffffffffffffffffffffff1681526020016002820180546113e89061405b565b80601f01602080910402602001604051908101604052809291908181526020018280546114149061405b565b801561145f5780601f106114365761010080835404028352916020019161145f565b820191905f5260205f20905b81548152906001019060200180831161144257829003601f168201915b505050505081526020016003820180546114789061405b565b80601f01602080910402602001604051908101604052809291908181526020018280546114a49061405b565b80156114ef5780601f106114c6576101008083540402835291602001916114ef565b820191905f5260205f20905b8154815290600101906020018083116114d257829003601f168201915b5050505050815260200160048201805480602002602001604051908101604052809291908181526020015f905b828210156115c4578382905f5260205f200180546115399061405b565b80601f01602080910402602001604051908101604052809291908181526020018280546115659061405b565b80156115b05780601f10611587576101008083540402835291602001916115b0565b820191905f5260205f20905b81548152906001019060200180831161159357829003601f168201915b50505050508152602001906001019061151c565b50505050815260200160058201548152602001600682015481526020016007820180546115f09061405b565b80601f016020809104026020016040519081016040528092919081815260200182805461161c9061405b565b80156116675780601f1061163e57610100808354040283529160200191611667565b820191905f5260205f20905b81548152906001019060200180831161164a57829003601f168201915b505050505081526020016008820180546116809061405b565b80601f01602080910402602001604051908101604052809291908181526020018280546116ac9061405b565b80156116f75780601f106116ce576101008083540402835291602001916116f7565b820191905f5260205f20905b8154815290600101906020018083116116da57829003601f168201915b50505050508152602001600982015f9054906101000a900460ff16151515158152602001600a8201805461172a9061405b565b80601f01602080910402602001604051908101604052809291908181526020018280546117569061405b565b80156117a15780601f10611778576101008083540402835291602001916117a1565b820191905f5260205f20905b81548152906001019060200180831161178457829003601f168201915b50505050508152602001600b8201548152602001600c820154815250508282815181106117d1576117d0614680565b5b602002602001018190525080806117e790614743565b91505061122c565b50809250505090565b600382604051611808919061442c565b9081526020016040518091039020600501546002611826919061449f565b811015611867577f0571c17fabdbebea862518abb447980c8b2af18b117ce124e8eb3c75a596112d60405161185a906140d5565b60405180910390a1611c11565b5f3390505f600a83600261187b919061449f565b611885919061446f565b90505f81846118949190614120565b90505f5b6005866040516118a8919061442c565b908152602001604051809103902080549050811015611a71576005866040516118d1919061442c565b908152602001604051809103902081815481106118f1576118f0614680565b5b905f5260205f20015f9054906101000a900473ffffffffffffffffffffffffffffffffffffffff1673ffffffffffffffffffffffffffffffffffffffff166108fc600588604051611942919061442c565b9081526020016040518091039020805490508461195f919061446f565b90811502906040515f60405180830381858888f19350505050158015611987573d5f803e3d5ffd5b50600586604051611998919061442c565b908152602001604051809103902080549050826119b5919061446f565b60025f6005896040516119c8919061442c565b908152602001604051809103902084815481106119e8576119e7614680565b5b905f5260205f20015f9054906101000a900473ffffffffffffffffffffffffffffffffffffffff1673ffffffffffffffffffffffffffffffffffffffff1673ffffffffffffffffffffffffffffffffffffffff1681526020019081526020015f205f828254611a579190614153565b925050819055508080611a6990614743565b915050611898565b5081600a5f828254611a839190614153565b9250508190555060095f9054906101000a900473ffffffffffffffffffffffffffffffffffffffff1673ffffffffffffffffffffffffffffffffffffffff166108fc8390811502906040515f60405180830381858888f19350505050158015611aee573d5f803e3d5ffd5b50600885604051611aff919061442c565b908152602001604051809103902083908060018154018082558091505060019003905f5260205f20015f9091909190916101000a81548173ffffffffffffffffffffffffffffffffffffffff021916908373ffffffffffffffffffffffffffffffffffffffff16021790555060065f3373ffffffffffffffffffffffffffffffffffffffff1673ffffffffffffffffffffffffffffffffffffffff1681526020019081526020015f2085908060018154018082558091505060019003905f5260205f20015f909190919091509081611bd79190614323565b507f0571c17fabdbebea862518abb447980c8b2af18b117ce124e8eb3c75a596112d604051611c05906147d4565b60405180910390a15050505b5050565b6060611c218383612d16565b611c60576040517f08c379a0000000000000000000000000000000000000000000000000000000008152600401611c57906145fa565b60405180910390fd5b600783604051611c70919061442c565b9081526020016040518091039020805480602002602001604051908101604052809291908181526020015f905b82821015611d45578382905f5260205f20018054611cba9061405b565b80601f0160208091040260200160405190810160405280929190818152602001828054611ce69061405b565b8015611d315780601f10611d0857610100808354040283529160200191611d31565b820191905f5260205f20905b815481529060010190602001808311611d1457829003601f168201915b505050505081526020019060010190611c9d565b50505050905092915050565b60095f9054906101000a900473ffffffffffffffffffffffffffffffffffffffff1681565b60018181548110611d85575f80fd5b905f5260205f20015f915090508054611d9d9061405b565b80601f0160208091040260200160405190810160405280929190818152602001828054611dc99061405b565b8015611e145780601f10611deb57610100808354040283529160200191611e14565b820191905f5260205f20905b815481529060010190602001808311611df757829003601f168201915b505050505081565b5f8181548110611e2a575f80fd5b905f5260205f20015f915090508054611e429061405b565b80601f0160208091040260200160405190810160405280929190818152602001828054611e6e9061405b565b8015611eb95780601f10611e9057610100808354040283529160200191611eb9565b820191905f5260205f20905b815481529060010190602001808311611e9c57829003601f168201915b505050505081565b5f81604051602001611ed3919061442c565b6040516020818303038152906040528051906020012083604051602001611efa919061442c565b6040516020818303038152906040528051906020012014905092915050565b6006602052815f5260405f208181548110611f32575f80fd5b905f5260205f20015f91509150508054611f4b9061405b565b80601f0160208091040260200160405190810160405280929190818152602001828054611f779061405b565b8015611fc25780601f10611f9957610100808354040283529160200191611fc2565b820191905f5260205f20905b815481529060010190602001808311611fa557829003601f168201915b505050505081565b60605f808054905090505f8167ffffffffffffffff811115611fef57611fee613382565b5b60405190808252806020026020018201604052801561202857816020015b612015613264565b81526020019060019003908161200d5790505b5090505f5b5f805490508110156125785760035f828154811061204e5761204d614680565b5b905f5260205f2001604051612063919061472d565b9081526020016040518091039020604051806101a00160405290815f8201805461208c9061405b565b80601f01602080910402602001604051908101604052809291908181526020018280546120b89061405b565b80156121035780601f106120da57610100808354040283529160200191612103565b820191905f5260205f20905b8154815290600101906020018083116120e657829003601f168201915b50505050508152602001600182015f9054906101000a900473ffffffffffffffffffffffffffffffffffffffff1673ffffffffffffffffffffffffffffffffffffffff1673ffffffffffffffffffffffffffffffffffffffff1681526020016002820180546121719061405b565b80601f016020809104026020016040519081016040528092919081815260200182805461219d9061405b565b80156121e85780601f106121bf576101008083540402835291602001916121e8565b820191905f5260205f20905b8154815290600101906020018083116121cb57829003601f168201915b505050505081526020016003820180546122019061405b565b80601f016020809104026020016040519081016040528092919081815260200182805461222d9061405b565b80156122785780601f1061224f57610100808354040283529160200191612278565b820191905f5260205f20905b81548152906001019060200180831161225b57829003601f168201915b5050505050815260200160048201805480602002602001604051908101604052809291908181526020015f905b8282101561234d578382905f5260205f200180546122c29061405b565b80601f01602080910402602001604051908101604052809291908181526020018280546122ee9061405b565b80156123395780601f1061231057610100808354040283529160200191612339565b820191905f5260205f20905b81548152906001019060200180831161231c57829003601f168201915b5050505050815260200190600101906122a5565b50505050815260200160058201548152602001600682015481526020016007820180546123799061405b565b80601f01602080910402602001604051908101604052809291908181526020018280546123a59061405b565b80156123f05780601f106123c7576101008083540402835291602001916123f0565b820191905f5260205f20905b8154815290600101906020018083116123d357829003601f168201915b505050505081526020016008820180546124099061405b565b80601f01602080910402602001604051908101604052809291908181526020018280546124359061405b565b80156124805780601f1061245757610100808354040283529160200191612480565b820191905f5260205f20905b81548152906001019060200180831161246357829003601f168201915b50505050508152602001600982015f9054906101000a900460ff16151515158152602001600a820180546124b39061405b565b80601f01602080910402602001604051908101604052809291908181526020018280546124df9061405b565b801561252a5780601f106125015761010080835404028352916020019161252a565b820191905f5260205f20905b81548152906001019060200180831161250d57829003601f168201915b50505050508152602001600b8201548152602001600c8201548152505082828151811061255a57612559614680565b5b6020026020010181905250808061257090614743565b91505061202d565b50809250505090565b5f60025f8373ffffffffffffffffffffffffffffffffffffffff1673ffffffffffffffffffffffffffffffffffffffff1681526020019081526020015f20549050919050565b6040516020016125d69061483c565b604051602081830303815290604052805190602001206003836040516125fc919061442c565b9081526020016040518091039020600a0160405160200161261d919061472d565b604051602081830303815290604052805190602001201480156126c557505f151560038360405161264e919061442c565b90815260200160405180910390206009015f9054906101000a900460ff16151514806126c4575060011515600383604051612689919061442c565b90815260200160405180910390206009015f9054906101000a900460ff1615151480156126c35750600115156126bf8484612e84565b1515145b5b5b15612cda576126d43383612fd2565b15612713577f0571c17fabdbebea862518abb447980c8b2af18b117ce124e8eb3c75a596112d6040516127069061489a565b60405180910390a1612d11565b5f60038084604051612725919061442c565b908152602001604051809103902060060154612741919061446f565b90505f600482612751919061449f565b600385604051612761919061442c565b90815260200160405180910390206005015461277d919061446f565b905080600485604051612790919061442c565b90815260200160405180910390205410806127d857508160026127b3919061449f565b6003856040516127c3919061442c565b9081526020016040518091039020600c015410155b15612822576127e684612df7565b7f0571c17fabdbebea862518abb447980c8b2af18b117ce124e8eb3c75a596112d60405161281390614902565b60405180910390a15050612d11565b600784604051612832919061442c565b908152602001604051809103902083908060018154018082558091505060019003905f5260205f20015f90919091909150908161286f9190614323565b50600584604051612880919061442c565b908152602001604051809103902033908060018154018082558091505060019003905f5260205f20015f9091909190916101000a81548173ffffffffffffffffffffffffffffffffffffffff021916908373ffffffffffffffffffffffffffffffffffffffff1602179055506003846040516128fc919061442c565b9081526020016040518091039020600c015f81548092919061291d90614743565b919050555081600385604051612933919061442c565b9081526020016040518091039020600c01541015612ab8573373ffffffffffffffffffffffffffffffffffffffff166108fc826002612972919061449f565b90811502906040515f60405180830381858888f1935050505015801561299a573d5f803e3d5ffd5b508060026129a8919061449f565b60025f3373ffffffffffffffffffffffffffffffffffffffff1673ffffffffffffffffffffffffffffffffffffffff1681526020019081526020015f205f8282546129f39190614153565b92505081905550806002612a07919061449f565b600485604051612a17919061442c565b90815260200160405180910390205f828254612a339190614120565b9250508190555081600385604051612a4b919061442c565b9081526020016040518091039020600c015403612a895780600385604051612a73919061442c565b9081526020016040518091039020600b01819055505b612ab3600385604051612a9c919061442c565b9081526020016040518091039020600401866130b3565b612c9e565b81600385604051612ac9919061442c565b9081526020016040518091039020600c015410158015612b155750816002612af1919061449f565b600385604051612b01919061442c565b9081526020016040518091039020600c0154105b15612c9d573373ffffffffffffffffffffffffffffffffffffffff166108fc8290811502906040515f60405180830381858888f19350505050158015612b5d573d5f803e3d5ffd5b5080600485604051612b6f919061442c565b90815260200160405180910390205f828254612b8b9190614120565b925050819055508060025f3373ffffffffffffffffffffffffffffffffffffffff1673ffffffffffffffffffffffffffffffffffffffff1681526020019081526020015f205f828254612bde9190614153565b92505081905550816002612bf2919061449f565b600385604051612c02919061442c565b9081526020016040518091039020600c01541480612c3d575080600485604051612c2c919061442c565b908152602001604051809103902054105b15612c72575f600385604051612c53919061442c565b9081526020016040518091039020600b0181905550612c7184612df7565b5b612c9c600385604051612c85919061442c565b9081526020016040518091039020600401866130b3565b5b5b7f0571c17fabdbebea862518abb447980c8b2af18b117ce124e8eb3c75a596112d604051612ccb9061496a565b60405180910390a15050612d10565b7f0571c17fabdbebea862518abb447980c8b2af18b117ce124e8eb3c75a596112d604051612d07906149d2565b60405180910390a15b5b505050565b5f805f90505b600884604051612d2c919061442c565b908152602001604051809103902080549050811015612dec578273ffffffffffffffffffffffffffffffffffffffff16600885604051612d6c919061442c565b90815260200160405180910390208281548110612d8c57612d8b614680565b5b905f5260205f20015f9054906101000a900473ffffffffffffffffffffffffffffffffffffffff1673ffffffffffffffffffffffffffffffffffffffff1603612dd9576001915050612df1565b8080612de490614743565b915050612d1c565b505f90505b92915050565b6040518060400160405280600581526020017f656e646564000000000000000000000000000000000000000000000000000000815250600382604051612e3d919061442c565b9081526020016040518091039020600a019081612e5a9190614323565b505f600382604051612e6c919061442c565b9081526020016040518091039020600b018190555050565b5f80600383604051612e96919061442c565b9081526020016040518091039020600401805480602002602001604051908101604052809291908181526020015f905b82821015612f6e578382905f5260205f20018054612ee39061405b565b80601f0160208091040260200160405190810160405280929190818152602001828054612f0f9061405b565b8015612f5a5780601f10612f3157610100808354040283529160200191612f5a565b820191905f5260205f20905b815481529060010190602001808311612f3d57829003601f168201915b505050505081526020019060010190612ec6565b5050505090505f5b8151811015612fc657612fa3828281518110612f9557612f94614680565b5b602002602001015186611ec1565b15612fb357600192505050612fcc565b8080612fbe90614743565b915050612f76565b505f9150505b92915050565b5f805f90505b600583604051612fe8919061442c565b9081526020016040518091039020805490508110156130a8578373ffffffffffffffffffffffffffffffffffffffff16600584604051613028919061442c565b9081526020016040518091039020828154811061304857613047614680565b5b905f5260205f20015f9054906101000a900473ffffffffffffffffffffffffffffffffffffffff1673ffffffffffffffffffffffffffffffffffffffff16036130955760019150506130ad565b80806130a090614743565b915050612fd8565b505f90505b92915050565b5f5b82805490508110156132085761316c8382815481106130d7576130d6614680565b5b905f5260205f200180546130ea9061405b565b80601f01602080910402602001604051908101604052809291908181526020018280546131169061405b565b80156131615780601f1061313857610100808354040283529160200191613161565b820191905f5260205f20905b81548152906001019060200180831161314457829003601f168201915b505050505083611ec1565b156131f55782600184805490506131839190614120565b8154811061319457613193614680565b5b905f5260205f20018382815481106131af576131ae614680565b5b905f5260205f200190816131c39190614a17565b50828054806131d5576131d4614afc565b5b600190038181905f5260205f20015f6131ee91906132de565b9055613208565b808061320090614743565b9150506130b5565b505050565b828054828255905f5260205f20908101928215613253579160200282015b828111156132525782518290816132429190614323565b509160200191906001019061322b565b5b509050613260919061331b565b5090565b604051806101a00160405280606081526020015f73ffffffffffffffffffffffffffffffffffffffff1681526020016060815260200160608152602001606081526020015f81526020015f815260200160608152602001606081526020015f15158152602001606081526020015f81526020015f81525090565b5080546132ea9061405b565b5f825580601f106132fb5750613318565b601f0160209004905f5260205f2090810190613317919061333e565b5b50565b5b8082111561333a575f818161333191906132de565b5060010161331c565b5090565b5b80821115613355575f815f90555060010161333f565b5090565b5f604051905090565b5f80fd5b5f80fd5b5f80fd5b5f80fd5b5f601f19601f8301169050919050565b7f4e487b71000000000000000000000000000000000000000000000000000000005f52604160045260245ffd5b6133b882613372565b810181811067ffffffffffffffff821117156133d7576133d6613382565b5b80604052505050565b5f6133e9613359565b90506133f582826133af565b919050565b5f67ffffffffffffffff82111561341457613413613382565b5b61341d82613372565b9050602081019050919050565b828183375f83830152505050565b5f61344a613445846133fa565b6133e0565b9050828152602081018484840111156134665761346561336e565b5b61347184828561342a565b509392505050565b5f82601f83011261348d5761348c61336a565b5b813561349d848260208601613438565b91505092915050565b5f602082840312156134bb576134ba613362565b5b5f82013567ffffffffffffffff8111156134d8576134d7613366565b5b6134e484828501613479565b91505092915050565b5f81519050919050565b5f82825260208201905092915050565b5f5b83811015613524578082015181840152602081019050613509565b5f8484015250505050565b5f613539826134ed565b61354381856134f7565b9350613553818560208601613507565b61355c81613372565b840191505092915050565b5f73ffffffffffffffffffffffffffffffffffffffff82169050919050565b5f61359082613567565b9050919050565b6135a081613586565b82525050565b5f819050919050565b6135b8816135a6565b82525050565b5f8115159050919050565b6135d2816135be565b82525050565b5f610180820190508181035f8301526135f1818f61352f565b9050613600602083018e613597565b8181036040830152613612818d61352f565b90508181036060830152613626818c61352f565b9050613635608083018b6135af565b61364260a083018a6135af565b81810360c0830152613654818961352f565b905081810360e0830152613668818861352f565b90506136786101008301876135c9565b81810361012083015261368b818661352f565b905061369b6101408301856135af565b6136a96101608301846135af565b9d9c50505050505050505050505050565b6136c3816135a6565b81146136cd575f80fd5b50565b5f813590506136de816136ba565b92915050565b5f80604083850312156136fa576136f9613362565b5b5f83013567ffffffffffffffff81111561371757613716613366565b5b61372385828601613479565b9250506020613734858286016136d0565b9150509250929050565b5f6020820190506137515f830184613597565b92915050565b613760816135be565b811461376a575f80fd5b50565b5f8135905061377b81613757565b92915050565b5f67ffffffffffffffff82111561379b5761379a613382565b5b602082029050602081019050919050565b5f80fd5b5f6137c26137bd84613781565b6133e0565b905080838252602082019050602084028301858111156137e5576137e46137ac565b5b835b8181101561382c57803567ffffffffffffffff81111561380a5761380961336a565b5b8086016138178982613479565b855260208501945050506020810190506137e7565b5050509392505050565b5f82601f83011261384a5761384961336a565b5b813561385a8482602086016137b0565b91505092915050565b5f805f805f805f80610100898b0312156138805761387f613362565b5b5f89013567ffffffffffffffff81111561389d5761389c613366565b5b6138a98b828c01613479565b985050602089013567ffffffffffffffff8111156138ca576138c9613366565b5b6138d68b828c01613479565b975050604089013567ffffffffffffffff8111156138f7576138f6613366565b5b6139038b828c01613479565b96505060606139148b828c0161376d565b955050608089013567ffffffffffffffff81111561393557613934613366565b5b6139418b828c01613836565b94505060a06139528b828c016136d0565b93505060c089013567ffffffffffffffff81111561397357613972613366565b5b61397f8b828c01613479565b92505060e089013567ffffffffffffffff8111156139a05761399f613366565b5b6139ac8b828c01613479565b9150509295985092959890939650565b5f6020820190506139cf5f8301846135af565b92915050565b6139de81613586565b81146139e8575f80fd5b50565b5f813590506139f9816139d5565b92915050565b5f60208284031215613a1457613a13613362565b5b5f613a21848285016139eb565b91505092915050565b5f6020820190508181035f830152613a42818461352f565b905092915050565b5f81519050919050565b5f82825260208201905092915050565b5f819050602082019050919050565b5f82825260208201905092915050565b5f613a8d826134ed565b613a978185613a73565b9350613aa7818560208601613507565b613ab081613372565b840191505092915050565b613ac481613586565b82525050565b5f81519050919050565b5f82825260208201905092915050565b5f819050602082019050919050565b5f613afe8383613a83565b905092915050565b5f602082019050919050565b5f613b1c82613aca565b613b268185613ad4565b935083602082028501613b3885613ae4565b805f5b85811015613b735784840389528151613b548582613af3565b9450613b5f83613b06565b925060208a01995050600181019050613b3b565b50829750879550505050505092915050565b613b8e816135a6565b82525050565b613b9d816135be565b82525050565b5f6101a083015f8301518482035f860152613bbe8282613a83565b9150506020830151613bd36020860182613abb565b5060408301518482036040860152613beb8282613a83565b91505060608301518482036060860152613c058282613a83565b91505060808301518482036080860152613c1f8282613b12565b91505060a0830151613c3460a0860182613b85565b5060c0830151613c4760c0860182613b85565b5060e083015184820360e0860152613c5f8282613a83565b915050610100830151848203610100860152613c7b8282613a83565b915050610120830151613c92610120860182613b94565b50610140830151848203610140860152613cac8282613a83565b915050610160830151613cc3610160860182613b85565b50610180830151613cd8610180860182613b85565b508091505092915050565b5f613cee8383613ba3565b905092915050565b5f602082019050919050565b5f613d0c82613a4a565b613d168185613a54565b935083602082028501613d2885613a64565b805f5b85811015613d635784840389528151613d448582613ce3565b9450613d4f83613cf6565b925060208a01995050600181019050613d2b565b50829750879550505050505092915050565b5f6020820190508181035f830152613d8d8184613d02565b905092915050565b5f8060408385031215613dab57613daa613362565b5b5f83013567ffffffffffffffff811115613dc857613dc7613366565b5b613dd485828601613479565b9250506020613de5858286016139eb565b9150509250929050565b5f82825260208201905092915050565b5f613e0982613aca565b613e138185613def565b935083602082028501613e2585613ae4565b805f5b85811015613e605784840389528151613e418582613af3565b9450613e4c83613b06565b925060208a01995050600181019050613e28565b50829750879550505050505092915050565b5f6020820190508181035f830152613e8a8184613dff565b905092915050565b5f60208284031215613ea757613ea6613362565b5b5f613eb4848285016136d0565b91505092915050565b5f8060408385031215613ed357613ed2613362565b5b5f83013567ffffffffffffffff811115613ef057613eef613366565b5b613efc85828601613479565b925050602083013567ffffffffffffffff811115613f1d57613f1c613366565b5b613f2985828601613479565b9150509250929050565b5f602082019050613f465f8301846135c9565b92915050565b5f8060408385031215613f6257613f61613362565b5b5f613f6f858286016139eb565b9250506020613f80858286016136d0565b9150509250929050565b5f805f60608486031215613fa157613fa0613362565b5b5f84013567ffffffffffffffff811115613fbe57613fbd613366565b5b613fca86828701613479565b935050602084013567ffffffffffffffff811115613feb57613fea613366565b5b613ff786828701613479565b925050604084013567ffffffffffffffff81111561401857614017613366565b5b61402486828701613479565b9150509250925092565b7f4e487b71000000000000000000000000000000000000000000000000000000005f52602260045260245ffd5b5f600282049050600182168061407257607f821691505b6020821081036140855761408461402e565b5b50919050565b7f496e73756666696369656e7420616d6f756e74000000000000000000000000005f82015250565b5f6140bf6013836134f7565b91506140ca8261408b565b602082019050919050565b5f6020820190508181035f8301526140ec816140b3565b9050919050565b7f4e487b71000000000000000000000000000000000000000000000000000000005f52601160045260245ffd5b5f61412a826135a6565b9150614135836135a6565b925082820390508181111561414d5761414c6140f3565b5b92915050565b5f61415d826135a6565b9150614168836135a6565b92508282019050808211156141805761417f6140f3565b5b92915050565b5f819050815f5260205f209050919050565b5f6020601f8301049050919050565b5f82821b905092915050565b5f600883026141e27fffffffffffffffffffffffffffffffffffffffffffffffffffffffffffffffff826141a7565b6141ec86836141a7565b95508019841693508086168417925050509392505050565b5f819050919050565b5f61422761422261421d846135a6565b614204565b6135a6565b9050919050565b5f819050919050565b6142408361420d565b61425461424c8261422e565b8484546141b3565b825550505050565b5f90565b61426861425c565b614273818484614237565b505050565b5b818110156142965761428b5f82614260565b600181019050614279565b5050565b601f8211156142db576142ac81614186565b6142b584614198565b810160208510156142c4578190505b6142d86142d085614198565b830182614278565b50505b505050565b5f82821c905092915050565b5f6142fb5f19846008026142e0565b1980831691505092915050565b5f61431383836142ec565b9150826002028217905092915050565b61432c826134ed565b67ffffffffffffffff81111561434557614344613382565b5b61434f825461405b565b61435a82828561429a565b5f60209050601f83116001811461438b575f8415614379578287015190505b6143838582614308565b8655506143ea565b601f19841661439986614186565b5f5b828110156143c05784890151825560018201915060208501945060208101905061439b565b868310156143dd57848901516143d9601f8916826142ec565b8355505b6001600288020188555050505b505050505050565b5f81905092915050565b5f614406826134ed565b61441081856143f2565b9350614420818560208601613507565b80840191505092915050565b5f61443782846143fc565b915081905092915050565b7f4e487b71000000000000000000000000000000000000000000000000000000005f52601260045260245ffd5b5f614479826135a6565b9150614484836135a6565b92508261449457614493614442565b5b828204905092915050565b5f6144a9826135a6565b91506144b4836135a6565b92508282026144c2816135a6565b915082820484148315176144d9576144d86140f3565b5b5092915050565b7f50726f64756374204372656174656400000000000000000000000000000000005f82015250565b5f614514600f836134f7565b915061451f826144e0565b602082019050919050565b5f6020820190508181035f83015261454181614508565b9050919050565b7f50726f64756374206973206e6f74206f6e676f696e67000000000000000000005f82015250565b5f61457c6016836134f7565b915061458782614548565b602082019050919050565b5f6020820190508181035f8301526145a981614570565b9050919050565b7f43616c6c6572206973206e6f74207468652070726f64756374206f776e6572005f82015250565b5f6145e4601f836134f7565b91506145ef826145b0565b602082019050919050565b5f6020820190508181035f830152614611816145d8565b9050919050565b7f526566756e64656420746865206d6f6e657900000000000000000000000000005f82015250565b5f61464c6012836134f7565b915061465782614618565b602082019050919050565b5f6020820190508181035f83015261467981614640565b9050919050565b7f4e487b71000000000000000000000000000000000000000000000000000000005f52603260045260245ffd5b5f81546146b98161405b565b6146c381866143f2565b9450600182165f81146146dd57600181146146f257614724565b60ff1983168652811515820286019350614724565b6146fb85614186565b5f5b8381101561471c578154818901526001820191506020810190506146fd565b838801955050505b50505092915050565b5f61473882846146ad565b915081905092915050565b5f61474d826135a6565b91507fffffffffffffffffffffffffffffffffffffffffffffffffffffffffffffffff820361477f5761477e6140f3565b5b600182019050919050565b7f52657669657720626f75676874000000000000000000000000000000000000005f82015250565b5f6147be600d836134f7565b91506147c98261478a565b602082019050919050565b5f6020820190508181035f8301526147eb816147b2565b9050919050565b7f6f6e676f696e67000000000000000000000000000000000000000000000000005f82015250565b5f6148266007836143f2565b9150614831826147f2565b600782019050919050565b5f6148468261481a565b9150819050919050565b7f52657669657765722068617320616c72656164792072657669657765640000005f82015250565b5f614884601d836134f7565b915061488f82614850565b602082019050919050565b5f6020820190508181035f8301526148b181614878565b9050919050565b7f50726f6475637420686173206e6f206d6f6e6579206c656674000000000000005f82015250565b5f6148ec6019836134f7565b91506148f7826148b8565b602082019050919050565b5f6020820190508181035f830152614919816148e0565b9050919050565b7f52657669657720616464656400000000000000000000000000000000000000005f82015250565b5f614954600c836134f7565b915061495f82614920565b602082019050919050565b5f6020820190508181035f83015261498181614948565b9050919050565b7f50726f64756374206e6f7420666f756e640000000000000000000000000000005f82015250565b5f6149bc6011836134f7565b91506149c782614988565b602082019050919050565b5f6020820190508181035f8301526149e9816149b0565b9050919050565b5f815490506149fe8161405b565b9050919050565b5f819050815f5260205f209050919050565b818103614a25575050614afa565b614a2e826149f0565b67ffffffffffffffff811115614a4757614a46613382565b5b614a51825461405b565b614a5c82828561429a565b5f601f831160018114614a89575f8415614a77578287015490505b614a818582614308565b865550614af3565b601f198416614a9787614a05565b9650614aa286614186565b5f5b82811015614ac957848901548255600182019150600185019450602081019050614aa4565b86831015614ae65784890154614ae2601f8916826142ec565b8355505b6001600288020188555050505b5050505050505b565b7f4e487b71000000000000000000000000000000000000000000000000000000005f52603160045260245ffdfea2646970667358221220192e3bb17ff0fe8b43b0694a058ad2edc0bff5e193214827b161254198d5b34d64736f6c63430008140033",
  "immutableReferences": {},
  "source": "// SPDX-License-Identifier: MIT\npragma solidity ^0.8.20;\n\ncontract MoneyDistribution {\n    struct AllDetails {\n        string id;\n        address owner;\n        string name;\n        string prodimg;\n        string[] orderIDs;\n        uint amt;\n        uint min_review_count;\n        string prod_Details;\n        string company_name;\n        bool typ;\n        string status;\n        uint nextAmount;\n        uint reviewCount;\n    }\n\n    string[] public allProduct;\n    string[] public finishedProduct;\n    mapping(address => uint) public overallProfit;\n    mapping(string => AllDetails) public products;\n    mapping(string => uint) public moneyLeft;\n    mapping(string => address[]) public reviewers;\n    mapping(address => string[]) public ownproducts;\n    mapping(string => string[]) public reviews;\n    mapping(string => address[]) public prodAccess;\n    address public owner;\n    uint public ourBalance;\n\n    constructor() {\n        owner = msg.sender;\n    }\n\n    modifier onlyOwner() {\n        require(msg.sender == owner, \"Not the contract owner\");\n        _;\n    }\n\n    receive() external payable {}\n\n    event event1(string message);\n\n    function NewProduct(\n        string memory prodID,\n        string memory prodimg,\n        string memory name,\n        bool t,\n        string[] memory orderIDs,\n        uint min_review_count,\n        string memory prod_Details,\n        string memory company_name\n    ) public payable {        \n        if (msg.value < 100) {\n            emit event1(\"Insufficient amount\");\n            return;\n        }\n\n        uint amt = msg.value - 100;\n        ourBalance += 100;\n        payable(0xb4F10CF4303F864bC564FDd37b639FdC0842aD57).transfer(100);\n\n        allProduct.push(prodID);\n        moneyLeft[prodID] = amt;\n        products[prodID] = AllDetails({\n            id: prodID,\n            owner: msg.sender,\n            name: name,\n            prodimg: prodimg,\n            orderIDs: orderIDs,\n            amt: amt,\n            min_review_count: min_review_count,\n            prod_Details: prod_Details,\n            company_name: company_name,\n            typ: t,\n            status: \"ongoing\",\n            nextAmount: 0,\n            reviewCount: 0\n        });\n\n        uint x = min_review_count / 3;\n        products[prodID].nextAmount = (amt / (x * 4)) * 2;\n        \n        ownproducts[msg.sender].push(prodID);\n        prodAccess[prodID].push(msg.sender);\n\n        emit event1(\"Product Created\");\n    }\n\n    function NewReview(string memory orderID, string memory prodID, string memory review) public payable {\n        if ((keccak256(abi.encodePacked(products[prodID].status)) == keccak256(abi.encodePacked(\"ongoing\"))) && ((products[prodID].typ == false) || (products[prodID].typ == true && isOrderIDValid(orderID, prodID) == true))) {        \n            if (hasReviewed(msg.sender, prodID)) {\n                emit event1(\"Reviewer has already reviewed\");\n                return;\n            }\n            uint x = products[prodID].min_review_count / 3;\n            uint y = products[prodID].amt / (x * 4);\n            if (moneyLeft[prodID] < y || products[prodID].reviewCount >= 2 * x) {   \n                endProduct(prodID);\n                emit event1(\"Product has no money left\");\n                return;\n            }\n            reviews[prodID].push(review);\n            reviewers[prodID].push(msg.sender);\n            products[prodID].reviewCount ++;\n            if (products[prodID].reviewCount < x) {\n                payable(msg.sender).transfer(2 * y);\n                overallProfit[msg.sender] += 2 * y;\n                moneyLeft[prodID] -= 2 * y;\n                if (products[prodID].reviewCount == x) {\n                    products[prodID].nextAmount = y;\n                }\n                removeFromArray(products[prodID].orderIDs, orderID);\n            } else if (products[prodID].reviewCount >= x && products[prodID].reviewCount < 2 * x) {\n                payable(msg.sender).transfer(y);\n                moneyLeft[prodID] -= y;\n                overallProfit[msg.sender] += y;\n                if (products[prodID].reviewCount == 2 * x || moneyLeft[prodID] < y) {\n                    products[prodID].nextAmount = 0;\n                    endProduct(prodID);\n                }\n                removeFromArray(products[prodID].orderIDs, orderID);\n            }        \n            emit event1(\"Review added\");\n        } else {\n            emit event1(\"Product not found\");\n        }\n    }\n    function Refund(string memory prodID) public payable{\n        require(compareStrings(products[prodID].status,\"ongoing\"), \"Product is not ongoing\");\n        require(isProductOwner(prodID, msg.sender), \"Caller is not the product owner\");\n\n        uint refundAmount = moneyLeft[prodID];\n        moneyLeft[prodID] = 0;\n        payable(msg.sender).transfer(refundAmount);\n        endProduct(prodID);\n\n        emit event1(\"Refunded the money\");\n    }\n\n    function getProducts() public view returns (AllDetails[] memory) {\n        uint totalLength = allProduct.length;\n        AllDetails[] memory allProducts = new AllDetails[](totalLength);\n        for (uint i = 0; i < allProduct.length; i++) {\n            allProducts[i] = products[allProduct[i]];\n        }\n        return allProducts;\n    }\n\n    function getAllProductbyOwner() public view returns (AllDetails[] memory) {\n        uint totalLength = ownproducts[msg.sender].length;\n        AllDetails[] memory allProducts = new AllDetails[](totalLength);\n        for (uint i = 0; i < ownproducts[msg.sender].length; i++) {\n            allProducts[i] = products[ownproducts[msg.sender][i]];\n        }\n\n        return allProducts;\n    }\n\n    function getReview(string memory prodID, address addr) public view returns (string[] memory) {\n        require(isProductOwner(prodID, addr), \"Caller is not the product owner\");\n        return reviews[prodID];\n    }\n\n    function BuyReview(string memory prodID, uint amt) public {\n        if (amt < 2 * products[prodID].amt) {\n            emit event1(\"Insufficient amount\");\n            return;\n        }\n\n        address adr = msg.sender;\n        uint ourProf = 2 * amt / 10;\n        uint eachProf = amt - ourProf;\n\n        for (uint i = 0; i < reviewers[prodID].length; i++) {\n            payable(reviewers[prodID][i]).transfer(eachProf / reviewers[prodID].length);\n            overallProfit[reviewers[prodID][i]] += eachProf / reviewers[prodID].length;\n        }\n\n        ourBalance += ourProf;\n        payable(owner).transfer(ourProf);\n\n        prodAccess[prodID].push(adr);\n        ownproducts[msg.sender].push(prodID);\n\n        emit event1(\"Review bought\");\n    }\n\n    function getProfit(address addr) public view returns (uint) {\n        return overallProfit[addr];\n    }\n\n    function isOrderIDValid(string memory orderID, string memory prodID) internal view returns (bool) {\n        string[] memory orderIDs = products[prodID].orderIDs;\n        for (uint i = 0; i < orderIDs.length; i++) {\n            if (compareStrings(orderIDs[i], orderID)) {\n                return true;\n            }\n        }\n        return false;\n    }\n\n    function compareStrings(string memory a, string memory b) public pure returns (bool) {\n        return keccak256(abi.encodePacked(a)) == keccak256(abi.encodePacked(b));\n    }\n\n    function hasReviewed(address reviewer, string memory prodID) internal view returns (bool) {\n        for (uint i = 0; i < reviewers[prodID].length; i++) {\n            if (reviewers[prodID][i] == reviewer) {\n                return true;\n            }\n        }\n        return false;\n    }\n\n    function isProductOwner(string memory prodID, address addr) internal view returns (bool) {\n        for (uint i = 0; i < prodAccess[prodID].length; i++) {\n            if (prodAccess[prodID][i] == addr) {\n                return true;\n            }\n        }\n        return false;\n    }\n\n    function endProduct(string memory prodID) internal {\n        products[prodID].status = \"ended\";\n        products[prodID].nextAmount = 0;\n    }\n\n    function removeFromArray(string[] storage array, string memory value) internal {\n        for (uint i = 0; i < array.length; i++) {\n            if (compareStrings(array[i], value)) {\n                array[i] = array[array.length - 1];\n                array.pop();\n                break;\n            }\n        }\n    }\n}\n",
  "sourcePath": "D:\\codes\\flow1\\Solidity\\contracts\\Migrations.sol",
  "compiler": {
    "name": "solc",
    "version": "0.8.20+commit.a1b79de6.Emscripten.clang"
  },
  "schemaVersion": "3.4.16",
  "updatedAt": "2024-06-26T07:39:34.089Z",
  "networkType": "ethereum",
  "devdoc": {
    "kind": "dev",
    "methods": {},
    "version": 1
  },
  "userdoc": {
    "kind": "user",
    "methods": {},
    "version": 1
  }
}