{
  "contractName": "MoneyDistribution",
  "abi": [
    {
      "inputs": [],
      "stateMutability": "nonpayable",
      "type": "constructor"
    },
    {
      "anonymous": false,
      "inputs": [
        {
          "indexed": false,
          "internalType": "string",
          "name": "message",
          "type": "string"
        }
      ],
      "name": "event1",
      "type": "event"
    },
    {
      "inputs": [
        {
          "internalType": "uint256",
          "name": "",
          "type": "uint256"
        }
      ],
      "name": "allProduct",
      "outputs": [
        {
          "internalType": "string",
          "name": "",
          "type": "string"
        }
      ],
      "stateMutability": "view",
      "type": "function",
      "constant": true
    },
    {
      "inputs": [
        {
          "internalType": "uint256",
          "name": "",
          "type": "uint256"
        }
      ],
      "name": "finishedProduct",
      "outputs": [
        {
          "internalType": "string",
          "name": "",
          "type": "string"
        }
      ],
      "stateMutability": "view",
      "type": "function",
      "constant": true
    },
    {
      "inputs": [
        {
          "internalType": "string",
          "name": "",
          "type": "string"
        }
      ],
      "name": "moneyLeft",
      "outputs": [
        {
          "internalType": "uint256",
          "name": "",
          "type": "uint256"
        }
      ],
      "stateMutability": "view",
      "type": "function",
      "constant": true
    },
    {
      "inputs": [],
      "name": "ourBalance",
      "outputs": [
        {
          "internalType": "uint256",
          "name": "",
          "type": "uint256"
        }
      ],
      "stateMutability": "view",
      "type": "function",
      "constant": true
    },
    {
      "inputs": [
        {
          "internalType": "address",
          "name": "",
          "type": "address"
        }
      ],
      "name": "overallProfit",
      "outputs": [
        {
          "internalType": "uint256",
          "name": "",
          "type": "uint256"
        }
      ],
      "stateMutability": "view",
      "type": "function",
      "constant": true
    },
    {
      "inputs": [],
      "name": "owner",
      "outputs": [
        {
          "internalType": "address",
          "name": "",
          "type": "address"
        }
      ],
      "stateMutability": "view",
      "type": "function",
      "constant": true
    },
    {
      "inputs": [
        {
          "internalType": "address",
          "name": "",
          "type": "address"
        },
        {
          "internalType": "uint256",
          "name": "",
          "type": "uint256"
        }
      ],
      "name": "ownproducts",
      "outputs": [
        {
          "internalType": "string",
          "name": "",
          "type": "string"
        }
      ],
      "stateMutability": "view",
      "type": "function",
      "constant": true
    },
    {
      "inputs": [
        {
          "internalType": "string",
          "name": "",
          "type": "string"
        },
        {
          "internalType": "uint256",
          "name": "",
          "type": "uint256"
        }
      ],
      "name": "prodAccess",
      "outputs": [
        {
          "internalType": "address",
          "name": "",
          "type": "address"
        }
      ],
      "stateMutability": "view",
      "type": "function",
      "constant": true
    },
    {
      "inputs": [
        {
          "internalType": "string",
          "name": "",
          "type": "string"
        }
      ],
      "name": "products",
      "outputs": [
        {
          "internalType": "address",
          "name": "owner",
          "type": "address"
        },
        {
          "internalType": "string",
          "name": "name",
          "type": "string"
        },
        {
          "internalType": "string",
          "name": "prodimg",
          "type": "string"
        },
        {
          "internalType": "uint256",
          "name": "amt",
          "type": "uint256"
        },
        {
          "internalType": "uint256",
          "name": "min_review_count",
          "type": "uint256"
        },
        {
          "internalType": "string",
          "name": "prod_Details",
          "type": "string"
        },
        {
          "internalType": "string",
          "name": "imgurl",
          "type": "string"
        },
        {
          "internalType": "string",
          "name": "company_name",
          "type": "string"
        },
        {
          "internalType": "bool",
          "name": "typ",
          "type": "bool"
        },
        {
          "internalType": "string",
          "name": "status",
          "type": "string"
        },
        {
          "internalType": "uint256",
          "name": "nextAmount",
          "type": "uint256"
        },
        {
          "internalType": "uint256",
          "name": "reviewCount",
          "type": "uint256"
        }
      ],
      "stateMutability": "view",
      "type": "function",
      "constant": true
    },
    {
      "inputs": [
        {
          "internalType": "string",
          "name": "",
          "type": "string"
        },
        {
          "internalType": "uint256",
          "name": "",
          "type": "uint256"
        }
      ],
      "name": "reviewers",
      "outputs": [
        {
          "internalType": "address",
          "name": "",
          "type": "address"
        }
      ],
      "stateMutability": "view",
      "type": "function",
      "constant": true
    },
    {
      "inputs": [
        {
          "internalType": "string",
          "name": "",
          "type": "string"
        },
        {
          "internalType": "uint256",
          "name": "",
          "type": "uint256"
        }
      ],
      "name": "reviews",
      "outputs": [
        {
          "internalType": "string",
          "name": "",
          "type": "string"
        }
      ],
      "stateMutability": "view",
      "type": "function",
      "constant": true
    },
    {
      "stateMutability": "payable",
      "type": "receive",
      "payable": true
    },
    {
      "inputs": [
        {
          "internalType": "string",
          "name": "prodID",
          "type": "string"
        },
        {
          "internalType": "string",
          "name": "prodimg",
          "type": "string"
        },
        {
          "internalType": "string",
          "name": "name",
          "type": "string"
        },
        {
          "internalType": "bool",
          "name": "t",
          "type": "bool"
        },
        {
          "internalType": "string[]",
          "name": "orderIDs",
          "type": "string[]"
        },
        {
          "internalType": "uint256",
          "name": "min_review_count",
          "type": "uint256"
        },
        {
          "internalType": "string",
          "name": "prod_Details",
          "type": "string"
        },
        {
          "internalType": "string",
          "name": "imgurl",
          "type": "string"
        },
        {
          "internalType": "string",
          "name": "company_name",
          "type": "string"
        }
      ],
      "name": "NewProduct",
      "outputs": [],
      "stateMutability": "payable",
      "type": "function",
      "payable": true
    },
    {
      "inputs": [
        {
          "internalType": "string",
          "name": "orderID",
          "type": "string"
        },
        {
          "internalType": "string",
          "name": "prodID",
          "type": "string"
        },
        {
          "internalType": "string",
          "name": "review",
          "type": "string"
        }
      ],
      "name": "NewReview",
      "outputs": [],
      "stateMutability": "payable",
      "type": "function",
      "payable": true
    },
    {
      "inputs": [
        {
          "internalType": "string",
          "name": "prodID",
          "type": "string"
        }
      ],
      "name": "Refund",
      "outputs": [],
      "stateMutability": "payable",
      "type": "function",
      "payable": true
    },
    {
      "inputs": [],
      "name": "getProducts",
      "outputs": [
        {
          "components": [
            {
              "internalType": "address",
              "name": "owner",
              "type": "address"
            },
            {
              "internalType": "string",
              "name": "name",
              "type": "string"
            },
            {
              "internalType": "string",
              "name": "prodimg",
              "type": "string"
            },
            {
              "internalType": "string[]",
              "name": "orderIDs",
              "type": "string[]"
            },
            {
              "internalType": "uint256",
              "name": "amt",
              "type": "uint256"
            },
            {
              "internalType": "uint256",
              "name": "min_review_count",
              "type": "uint256"
            },
            {
              "internalType": "string",
              "name": "prod_Details",
              "type": "string"
            },
            {
              "internalType": "string",
              "name": "imgurl",
              "type": "string"
            },
            {
              "internalType": "string",
              "name": "company_name",
              "type": "string"
            },
            {
              "internalType": "bool",
              "name": "typ",
              "type": "bool"
            },
            {
              "internalType": "string",
              "name": "status",
              "type": "string"
            },
            {
              "internalType": "uint256",
              "name": "nextAmount",
              "type": "uint256"
            },
            {
              "internalType": "uint256",
              "name": "reviewCount",
              "type": "uint256"
            }
          ],
          "internalType": "struct MoneyDistribution.AllDetails[]",
          "name": "",
          "type": "tuple[]"
        }
      ],
      "stateMutability": "view",
      "type": "function",
      "constant": true
    },
    {
      "inputs": [],
      "name": "getAllProductbyOwner",
      "outputs": [
        {
          "components": [
            {
              "internalType": "address",
              "name": "owner",
              "type": "address"
            },
            {
              "internalType": "string",
              "name": "name",
              "type": "string"
            },
            {
              "internalType": "string",
              "name": "prodimg",
              "type": "string"
            },
            {
              "internalType": "string[]",
              "name": "orderIDs",
              "type": "string[]"
            },
            {
              "internalType": "uint256",
              "name": "amt",
              "type": "uint256"
            },
            {
              "internalType": "uint256",
              "name": "min_review_count",
              "type": "uint256"
            },
            {
              "internalType": "string",
              "name": "prod_Details",
              "type": "string"
            },
            {
              "internalType": "string",
              "name": "imgurl",
              "type": "string"
            },
            {
              "internalType": "string",
              "name": "company_name",
              "type": "string"
            },
            {
              "internalType": "bool",
              "name": "typ",
              "type": "bool"
            },
            {
              "internalType": "string",
              "name": "status",
              "type": "string"
            },
            {
              "internalType": "uint256",
              "name": "nextAmount",
              "type": "uint256"
            },
            {
              "internalType": "uint256",
              "name": "reviewCount",
              "type": "uint256"
            }
          ],
          "internalType": "struct MoneyDistribution.AllDetails[]",
          "name": "",
          "type": "tuple[]"
        }
      ],
      "stateMutability": "view",
      "type": "function",
      "constant": true
    },
    {
      "inputs": [
        {
          "internalType": "string",
          "name": "prodID",
          "type": "string"
        },
        {
          "internalType": "address",
          "name": "addr",
          "type": "address"
        }
      ],
      "name": "getReview",
      "outputs": [
        {
          "internalType": "string[]",
          "name": "",
          "type": "string[]"
        }
      ],
      "stateMutability": "view",
      "type": "function",
      "constant": true
    },
    {
      "inputs": [
        {
          "internalType": "string",
          "name": "prodID",
          "type": "string"
        },
        {
          "internalType": "uint256",
          "name": "amt",
          "type": "uint256"
        }
      ],
      "name": "BuyReview",
      "outputs": [],
      "stateMutability": "nonpayable",
      "type": "function"
    },
    {
      "inputs": [
        {
          "internalType": "address",
          "name": "addr",
          "type": "address"
        }
      ],
      "name": "getProfit",
      "outputs": [
        {
          "internalType": "uint256",
          "name": "",
          "type": "uint256"
        }
      ],
      "stateMutability": "view",
      "type": "function",
      "constant": true
    },
    {
      "inputs": [
        {
          "internalType": "string",
          "name": "a",
          "type": "string"
        },
        {
          "internalType": "string",
          "name": "b",
          "type": "string"
        }
      ],
      "name": "compareStrings",
      "outputs": [
        {
          "internalType": "bool",
          "name": "",
          "type": "bool"
        }
      ],
      "stateMutability": "pure",
      "type": "function",
      "constant": true
    }
  ],
  "bytecode": "0x608060405234801561000f575f80fd5b503360095f6101000a81548173ffffffffffffffffffffffffffffffffffffffff021916908373ffffffffffffffffffffffffffffffffffffffff1602179055506148a88061005d5f395ff3fe608060405260043610610122575f3560e01c8063817ab4c71161009f578063bed34bba11610063578063bed34bba14610432578063c1153c311461046e578063c29b2f20146104aa578063c600e1dc146104d4578063ea6471ae1461051057610129565b8063817ab4c71461032c5780638249be8c146103545780638da5cb5b1461039057806399d1a60f146103ba578063adad41cd146103f657610129565b806352da993e116100e657806352da993e14610212578063697582621461024e5780637144dbea1461028a57806371f5e27c146102c65780638171166b1461030257610129565b80630186a4231461012d578063039f573e14610174578063199c4fb4146101b0578063233b9a63146101cc5780634ebf06da146101f657610129565b3661012957005b5f80fd5b348015610138575f80fd5b50610153600480360381019061014e91906132f9565b61052c565b60405161016b9c9b9a9998979695949392919061342b565b60405180910390f35b34801561017f575f80fd5b5061019a60048036038101906101959190613537565b6108ef565b6040516101a79190613591565b60405180910390f35b6101ca60048036038101906101c591906132f9565b61094f565b005b3480156101d7575f80fd5b506101e0610b88565b6040516101ed91906135aa565b60405180910390f35b610210600480360381019061020b91906136cf565b610b8e565b005b34801561021d575f80fd5b5061023860048036038101906102339190613537565b611023565b6040516102459190613591565b60405180910390f35b348015610259575f80fd5b50610274600480360381019061026f9190613881565b611083565b60405161028191906135aa565b60405180910390f35b348015610295575f80fd5b506102b060048036038101906102ab91906132f9565b611098565b6040516102bd91906135aa565b60405180910390f35b3480156102d1575f80fd5b506102ec60048036038101906102e79190613537565b6110c5565b6040516102f991906138ac565b60405180910390f35b34801561030d575f80fd5b5061031661118e565b6040516103239190613bf7565b60405180910390f35b348015610337575f80fd5b50610352600480360381019061034d9190613537565b6117f9565b005b34801561035f575f80fd5b5061037a60048036038101906103759190613c17565b611c16565b6040516103879190613cf4565b60405180910390f35b34801561039b575f80fd5b506103a4611d52565b6040516103b19190613591565b60405180910390f35b3480156103c5575f80fd5b506103e060048036038101906103db9190613d14565b611d77565b6040516103ed91906138ac565b60405180910390f35b348015610401575f80fd5b5061041c60048036038101906104179190613d14565b611e1d565b60405161042991906138ac565b60405180910390f35b34801561043d575f80fd5b5061045860048036038101906104539190613d3f565b611ec2565b6040516104659190613db5565b60405180910390f35b348015610479575f80fd5b50610494600480360381019061048f9190613dce565b611f1a565b6040516104a191906138ac565b60405180910390f35b3480156104b5575f80fd5b506104be611fcb565b6040516104cb9190613bf7565b60405180910390f35b3480156104df575f80fd5b506104fa60048036038101906104f59190613881565b612582565b60405161050791906135aa565b60405180910390f35b61052a60048036038101906105259190613e0c565b6125c8565b005b6003818051602081018201805184825260208301602085012081835280955050505050505f91509050805f015f9054906101000a900473ffffffffffffffffffffffffffffffffffffffff169080600101805461058890613edd565b80601f01602080910402602001604051908101604052809291908181526020018280546105b490613edd565b80156105ff5780601f106105d6576101008083540402835291602001916105ff565b820191905f5260205f20905b8154815290600101906020018083116105e257829003601f168201915b50505050509080600201805461061490613edd565b80601f016020809104026020016040519081016040528092919081815260200182805461064090613edd565b801561068b5780601f106106625761010080835404028352916020019161068b565b820191905f5260205f20905b81548152906001019060200180831161066e57829003601f168201915b5050505050908060040154908060050154908060060180546106ac90613edd565b80601f01602080910402602001604051908101604052809291908181526020018280546106d890613edd565b80156107235780601f106106fa57610100808354040283529160200191610723565b820191905f5260205f20905b81548152906001019060200180831161070657829003601f168201915b50505050509080600701805461073890613edd565b80601f016020809104026020016040519081016040528092919081815260200182805461076490613edd565b80156107af5780601f10610786576101008083540402835291602001916107af565b820191905f5260205f20905b81548152906001019060200180831161079257829003601f168201915b5050505050908060080180546107c490613edd565b80601f01602080910402602001604051908101604052809291908181526020018280546107f090613edd565b801561083b5780601f106108125761010080835404028352916020019161083b565b820191905f5260205f20905b81548152906001019060200180831161081e57829003601f168201915b505050505090806009015f9054906101000a900460ff169080600a01805461086290613edd565b80601f016020809104026020016040519081016040528092919081815260200182805461088e90613edd565b80156108d95780601f106108b0576101008083540402835291602001916108d9565b820191905f5260205f20905b8154815290600101906020018083116108bc57829003601f168201915b50505050509080600b01549080600c015490508c565b6005828051602081018201805184825260208301602085012081835280955050505050508181548110610920575f80fd5b905f5260205f20015f915091509054906101000a900473ffffffffffffffffffffffffffffffffffffffff1681565b610a356003826040516109629190613f47565b9081526020016040518091039020600a01805461097e90613edd565b80601f01602080910402602001604051908101604052809291908181526020018280546109aa90613edd565b80156109f55780601f106109cc576101008083540402835291602001916109f5565b820191905f5260205f20905b8154815290600101906020018083116109d857829003601f168201915b50505050506040518060400160405280600781526020017f6f6e676f696e6700000000000000000000000000000000000000000000000000815250611ec2565b610a74576040517f08c379a0000000000000000000000000000000000000000000000000000000008152600401610a6b90613fa7565b60405180910390fd5b610a7e8133612cc3565b610abd576040517f08c379a0000000000000000000000000000000000000000000000000000000008152600401610ab49061400f565b60405180910390fd5b5f600482604051610ace9190613f47565b90815260200160405180910390205490505f600483604051610af09190613f47565b9081526020016040518091039020819055503373ffffffffffffffffffffffffffffffffffffffff166108fc8290811502906040515f60405180830381858888f19350505050158015610b45573d5f803e3d5ffd5b50610b4f82612da4565b7f0571c17fabdbebea862518abb447980c8b2af18b117ce124e8eb3c75a596112d604051610b7c90614077565b60405180910390a15050565b600a5481565b6064341015610bd1577f0571c17fabdbebea862518abb447980c8b2af18b117ce124e8eb3c75a596112d604051610bc4906140df565b60405180910390a1611018565b5f606434610bdf919061412a565b90506064600a5f828254610bf3919061415d565b9250508190555073b4f10cf4303f864bc564fdd37b639fdc0842ad5773ffffffffffffffffffffffffffffffffffffffff166108fc606490811502906040515f60405180830381858888f19350505050158015610c52573d5f803e3d5ffd5b505f8a908060018154018082558091505060019003905f5260205f20015f909190919091509081610c83919061432d565b508060048b604051610c959190613f47565b908152602001604051809103902081905550604051806101a001604052803373ffffffffffffffffffffffffffffffffffffffff1681526020018981526020018a815260200187815260200182815260200186815260200185815260200184815260200183815260200188151581526020016040518060400160405280600781526020017f6f6e676f696e670000000000000000000000000000000000000000000000000081525081526020015f81526020015f81525060038b604051610d5c9190613f47565b90815260200160405180910390205f820151815f015f6101000a81548173ffffffffffffffffffffffffffffffffffffffff021916908373ffffffffffffffffffffffffffffffffffffffff1602179055506020820151816001019081610dc3919061432d565b506040820151816002019081610dd9919061432d565b506060820151816003019080519060200190610df6929190613060565b506080820151816004015560a0820151816005015560c0820151816006019081610e20919061432d565b5060e0820151816007019081610e36919061432d565b50610100820151816008019081610e4d919061432d565b50610120820151816009015f6101000a81548160ff02191690831515021790555061014082015181600a019081610e84919061432d565b5061016082015181600b015561018082015181600c01559050505f600386610eac9190614429565b90506002600482610ebd9190614459565b83610ec89190614429565b610ed29190614459565b60038c604051610ee29190613f47565b9081526020016040518091039020600b018190555060065f3373ffffffffffffffffffffffffffffffffffffffff1673ffffffffffffffffffffffffffffffffffffffff1681526020019081526020015f208b908060018154018082558091505060019003905f5260205f20015f909190919091509081610f63919061432d565b5060088b604051610f749190613f47565b908152602001604051809103902033908060018154018082558091505060019003905f5260205f20015f9091909190916101000a81548173ffffffffffffffffffffffffffffffffffffffff021916908373ffffffffffffffffffffffffffffffffffffffff1602179055507f0571c17fabdbebea862518abb447980c8b2af18b117ce124e8eb3c75a596112d60405161100d906144e4565b60405180910390a150505b505050505050505050565b6008828051602081018201805184825260208301602085012081835280955050505050508181548110611054575f80fd5b905f5260205f20015f915091509054906101000a900473ffffffffffffffffffffffffffffffffffffffff1681565b6002602052805f5260405f205f915090505481565b6004818051602081018201805184825260208301602085012081835280955050505050505f915090505481565b60078280516020810182018051848252602083016020850120818352809550505050505081815481106110f6575f80fd5b905f5260205f20015f9150915050805461110f90613edd565b80601f016020809104026020016040519081016040528092919081815260200182805461113b90613edd565b80156111865780601f1061115d57610100808354040283529160200191611186565b820191905f5260205f20905b81548152906001019060200180831161116957829003601f168201915b505050505081565b60605f60065f3373ffffffffffffffffffffffffffffffffffffffff1673ffffffffffffffffffffffffffffffffffffffff1681526020019081526020015f208054905090505f8167ffffffffffffffff8111156111ef576111ee6131d5565b5b60405190808252806020026020018201604052801561122857816020015b6112156130b7565b81526020019060019003908161120d5790505b5090505f5b60065f3373ffffffffffffffffffffffffffffffffffffffff1673ffffffffffffffffffffffffffffffffffffffff1681526020019081526020015f20805490508110156117f057600360065f3373ffffffffffffffffffffffffffffffffffffffff1673ffffffffffffffffffffffffffffffffffffffff1681526020019081526020015f2082815481106112c6576112c5614502565b5b905f5260205f20016040516112db91906145af565b9081526020016040518091039020604051806101a00160405290815f82015f9054906101000a900473ffffffffffffffffffffffffffffffffffffffff1673ffffffffffffffffffffffffffffffffffffffff1673ffffffffffffffffffffffffffffffffffffffff16815260200160018201805461135990613edd565b80601f016020809104026020016040519081016040528092919081815260200182805461138590613edd565b80156113d05780601f106113a7576101008083540402835291602001916113d0565b820191905f5260205f20905b8154815290600101906020018083116113b357829003601f168201915b505050505081526020016002820180546113e990613edd565b80601f016020809104026020016040519081016040528092919081815260200182805461141590613edd565b80156114605780601f1061143757610100808354040283529160200191611460565b820191905f5260205f20905b81548152906001019060200180831161144357829003601f168201915b5050505050815260200160038201805480602002602001604051908101604052809291908181526020015f905b82821015611535578382905f5260205f200180546114aa90613edd565b80601f01602080910402602001604051908101604052809291908181526020018280546114d690613edd565b80156115215780601f106114f857610100808354040283529160200191611521565b820191905f5260205f20905b81548152906001019060200180831161150457829003601f168201915b50505050508152602001906001019061148d565b505050508152602001600482015481526020016005820154815260200160068201805461156190613edd565b80601f016020809104026020016040519081016040528092919081815260200182805461158d90613edd565b80156115d85780601f106115af576101008083540402835291602001916115d8565b820191905f5260205f20905b8154815290600101906020018083116115bb57829003601f168201915b505050505081526020016007820180546115f190613edd565b80601f016020809104026020016040519081016040528092919081815260200182805461161d90613edd565b80156116685780601f1061163f57610100808354040283529160200191611668565b820191905f5260205f20905b81548152906001019060200180831161164b57829003601f168201915b5050505050815260200160088201805461168190613edd565b80601f01602080910402602001604051908101604052809291908181526020018280546116ad90613edd565b80156116f85780601f106116cf576101008083540402835291602001916116f8565b820191905f5260205f20905b8154815290600101906020018083116116db57829003601f168201915b50505050508152602001600982015f9054906101000a900460ff16151515158152602001600a8201805461172b90613edd565b80601f016020809104026020016040519081016040528092919081815260200182805461175790613edd565b80156117a25780601f10611779576101008083540402835291602001916117a2565b820191905f5260205f20905b81548152906001019060200180831161178557829003601f168201915b50505050508152602001600b8201548152602001600c820154815250508282815181106117d2576117d1614502565b5b602002602001018190525080806117e8906145c5565b91505061122d565b50809250505090565b6003826040516118099190613f47565b90815260200160405180910390206004015460026118279190614459565b811015611868577f0571c17fabdbebea862518abb447980c8b2af18b117ce124e8eb3c75a596112d60405161185b906140df565b60405180910390a1611c12565b5f3390505f600a83600261187c9190614459565b6118869190614429565b90505f8184611895919061412a565b90505f5b6005866040516118a99190613f47565b908152602001604051809103902080549050811015611a72576005866040516118d29190613f47565b908152602001604051809103902081815481106118f2576118f1614502565b5b905f5260205f20015f9054906101000a900473ffffffffffffffffffffffffffffffffffffffff1673ffffffffffffffffffffffffffffffffffffffff166108fc6005886040516119439190613f47565b908152602001604051809103902080549050846119609190614429565b90811502906040515f60405180830381858888f19350505050158015611988573d5f803e3d5ffd5b506005866040516119999190613f47565b908152602001604051809103902080549050826119b69190614429565b60025f6005896040516119c99190613f47565b908152602001604051809103902084815481106119e9576119e8614502565b5b905f5260205f20015f9054906101000a900473ffffffffffffffffffffffffffffffffffffffff1673ffffffffffffffffffffffffffffffffffffffff1673ffffffffffffffffffffffffffffffffffffffff1681526020019081526020015f205f828254611a58919061415d565b925050819055508080611a6a906145c5565b915050611899565b5081600a5f828254611a84919061415d565b9250508190555060095f9054906101000a900473ffffffffffffffffffffffffffffffffffffffff1673ffffffffffffffffffffffffffffffffffffffff166108fc8390811502906040515f60405180830381858888f19350505050158015611aef573d5f803e3d5ffd5b50600885604051611b009190613f47565b908152602001604051809103902083908060018154018082558091505060019003905f5260205f20015f9091909190916101000a81548173ffffffffffffffffffffffffffffffffffffffff021916908373ffffffffffffffffffffffffffffffffffffffff16021790555060065f3373ffffffffffffffffffffffffffffffffffffffff1673ffffffffffffffffffffffffffffffffffffffff1681526020019081526020015f2085908060018154018082558091505060019003905f5260205f20015f909190919091509081611bd8919061432d565b507f0571c17fabdbebea862518abb447980c8b2af18b117ce124e8eb3c75a596112d604051611c0690614656565b60405180910390a15050505b5050565b6060611c228383612cc3565b611c61576040517f08c379a0000000000000000000000000000000000000000000000000000000008152600401611c589061400f565b60405180910390fd5b600783604051611c719190613f47565b9081526020016040518091039020805480602002602001604051908101604052809291908181526020015f905b82821015611d46578382905f5260205f20018054611cbb90613edd565b80601f0160208091040260200160405190810160405280929190818152602001828054611ce790613edd565b8015611d325780601f10611d0957610100808354040283529160200191611d32565b820191905f5260205f20905b815481529060010190602001808311611d1557829003601f168201915b505050505081526020019060010190611c9e565b50505050905092915050565b60095f9054906101000a900473ffffffffffffffffffffffffffffffffffffffff1681565b60018181548110611d86575f80fd5b905f5260205f20015f915090508054611d9e90613edd565b80601f0160208091040260200160405190810160405280929190818152602001828054611dca90613edd565b8015611e155780601f10611dec57610100808354040283529160200191611e15565b820191905f5260205f20905b815481529060010190602001808311611df857829003601f168201915b505050505081565b5f8181548110611e2b575f80fd5b905f5260205f20015f915090508054611e4390613edd565b80601f0160208091040260200160405190810160405280929190818152602001828054611e6f90613edd565b8015611eba5780601f10611e9157610100808354040283529160200191611eba565b820191905f5260205f20905b815481529060010190602001808311611e9d57829003601f168201915b505050505081565b5f81604051602001611ed49190613f47565b6040516020818303038152906040528051906020012083604051602001611efb9190613f47565b6040516020818303038152906040528051906020012014905092915050565b6006602052815f5260405f208181548110611f33575f80fd5b905f5260205f20015f91509150508054611f4c90613edd565b80601f0160208091040260200160405190810160405280929190818152602001828054611f7890613edd565b8015611fc35780601f10611f9a57610100808354040283529160200191611fc3565b820191905f5260205f20905b815481529060010190602001808311611fa657829003601f168201915b505050505081565b60605f808054905090505f8167ffffffffffffffff811115611ff057611fef6131d5565b5b60405190808252806020026020018201604052801561202957816020015b6120166130b7565b81526020019060019003908161200e5790505b5090505f5b5f805490508110156125795760035f828154811061204f5761204e614502565b5b905f5260205f200160405161206491906145af565b9081526020016040518091039020604051806101a00160405290815f82015f9054906101000a900473ffffffffffffffffffffffffffffffffffffffff1673ffffffffffffffffffffffffffffffffffffffff1673ffffffffffffffffffffffffffffffffffffffff1681526020016001820180546120e290613edd565b80601f016020809104026020016040519081016040528092919081815260200182805461210e90613edd565b80156121595780601f1061213057610100808354040283529160200191612159565b820191905f5260205f20905b81548152906001019060200180831161213c57829003601f168201915b5050505050815260200160028201805461217290613edd565b80601f016020809104026020016040519081016040528092919081815260200182805461219e90613edd565b80156121e95780601f106121c0576101008083540402835291602001916121e9565b820191905f5260205f20905b8154815290600101906020018083116121cc57829003601f168201915b5050505050815260200160038201805480602002602001604051908101604052809291908181526020015f905b828210156122be578382905f5260205f2001805461223390613edd565b80601f016020809104026020016040519081016040528092919081815260200182805461225f90613edd565b80156122aa5780601f10612281576101008083540402835291602001916122aa565b820191905f5260205f20905b81548152906001019060200180831161228d57829003601f168201915b505050505081526020019060010190612216565b50505050815260200160048201548152602001600582015481526020016006820180546122ea90613edd565b80601f016020809104026020016040519081016040528092919081815260200182805461231690613edd565b80156123615780601f1061233857610100808354040283529160200191612361565b820191905f5260205f20905b81548152906001019060200180831161234457829003601f168201915b5050505050815260200160078201805461237a90613edd565b80601f01602080910402602001604051908101604052809291908181526020018280546123a690613edd565b80156123f15780601f106123c8576101008083540402835291602001916123f1565b820191905f5260205f20905b8154815290600101906020018083116123d457829003601f168201915b5050505050815260200160088201805461240a90613edd565b80601f016020809104026020016040519081016040528092919081815260200182805461243690613edd565b80156124815780601f1061245857610100808354040283529160200191612481565b820191905f5260205f20905b81548152906001019060200180831161246457829003601f168201915b50505050508152602001600982015f9054906101000a900460ff16151515158152602001600a820180546124b490613edd565b80601f01602080910402602001604051908101604052809291908181526020018280546124e090613edd565b801561252b5780601f106125025761010080835404028352916020019161252b565b820191905f5260205f20905b81548152906001019060200180831161250e57829003601f168201915b50505050508152602001600b8201548152602001600c8201548152505082828151811061255b5761255a614502565b5b60200260200101819052508080612571906145c5565b91505061202e565b50809250505090565b5f60025f8373ffffffffffffffffffffffffffffffffffffffff1673ffffffffffffffffffffffffffffffffffffffff1681526020019081526020015f20549050919050565b6040516020016125d7906146be565b604051602081830303815290604052805190602001206003836040516125fd9190613f47565b9081526020016040518091039020600a0160405160200161261e91906145af565b604051602081830303815290604052805190602001201480156126c657505f151560038360405161264f9190613f47565b90815260200160405180910390206009015f9054906101000a900460ff16151514806126c557506001151560038360405161268a9190613f47565b90815260200160405180910390206009015f9054906101000a900460ff1615151480156126c45750600115156126c08484612e31565b1515145b5b5b15612c87576126d53383612f7f565b15612714577f0571c17fabdbebea862518abb447980c8b2af18b117ce124e8eb3c75a596112d6040516127079061471c565b60405180910390a1612cbe565b5f600380846040516127269190613f47565b9081526020016040518091039020600501546127429190614429565b90505f6004826127529190614459565b6003856040516127629190613f47565b90815260200160405180910390206004015461277e9190614429565b9050806004856040516127919190613f47565b90815260200160405180910390205410806127d957508160026127b49190614459565b6003856040516127c49190613f47565b9081526020016040518091039020600c015410155b15612823576127e784612da4565b7f0571c17fabdbebea862518abb447980c8b2af18b117ce124e8eb3c75a596112d60405161281490614784565b60405180910390a15050612cbe565b6007846040516128339190613f47565b908152602001604051809103902083908060018154018082558091505060019003905f5260205f20015f909190919091509081612870919061432d565b506005846040516128819190613f47565b908152602001604051809103902033908060018154018082558091505060019003905f5260205f20015f9091909190916101000a81548173ffffffffffffffffffffffffffffffffffffffff021916908373ffffffffffffffffffffffffffffffffffffffff1602179055506003846040516128fd9190613f47565b9081526020016040518091039020600c015f81548092919061291e906145c5565b9190505550816003856040516129349190613f47565b9081526020016040518091039020600c01541015612a8f573373ffffffffffffffffffffffffffffffffffffffff166108fc8260026129739190614459565b90811502906040515f60405180830381858888f1935050505015801561299b573d5f803e3d5ffd5b508060026129a99190614459565b60025f3373ffffffffffffffffffffffffffffffffffffffff1673ffffffffffffffffffffffffffffffffffffffff1681526020019081526020015f205f8282546129f4919061415d565b92505081905550806002612a089190614459565b600485604051612a189190613f47565b90815260200160405180910390205f828254612a34919061412a565b9250508190555081600385604051612a4c9190613f47565b9081526020016040518091039020600c015403612a8a5780600385604051612a749190613f47565b9081526020016040518091039020600b01819055505b612c4b565b81600385604051612aa09190613f47565b9081526020016040518091039020600c015410158015612aec5750816002612ac89190614459565b600385604051612ad89190613f47565b9081526020016040518091039020600c0154105b15612c4a573373ffffffffffffffffffffffffffffffffffffffff166108fc8290811502906040515f60405180830381858888f19350505050158015612b34573d5f803e3d5ffd5b5080600485604051612b469190613f47565b90815260200160405180910390205f828254612b62919061412a565b925050819055508060025f3373ffffffffffffffffffffffffffffffffffffffff1673ffffffffffffffffffffffffffffffffffffffff1681526020019081526020015f205f828254612bb5919061415d565b92505081905550816002612bc99190614459565b600385604051612bd99190613f47565b9081526020016040518091039020600c01541480612c14575080600485604051612c039190613f47565b908152602001604051809103902054105b15612c49575f600385604051612c2a9190613f47565b9081526020016040518091039020600b0181905550612c4884612da4565b5b5b5b7f0571c17fabdbebea862518abb447980c8b2af18b117ce124e8eb3c75a596112d604051612c78906147ec565b60405180910390a15050612cbd565b7f0571c17fabdbebea862518abb447980c8b2af18b117ce124e8eb3c75a596112d604051612cb490614854565b60405180910390a15b5b505050565b5f805f90505b600884604051612cd99190613f47565b908152602001604051809103902080549050811015612d99578273ffffffffffffffffffffffffffffffffffffffff16600885604051612d199190613f47565b90815260200160405180910390208281548110612d3957612d38614502565b5b905f5260205f20015f9054906101000a900473ffffffffffffffffffffffffffffffffffffffff1673ffffffffffffffffffffffffffffffffffffffff1603612d86576001915050612d9e565b8080612d91906145c5565b915050612cc9565b505f90505b92915050565b6040518060400160405280600581526020017f656e646564000000000000000000000000000000000000000000000000000000815250600382604051612dea9190613f47565b9081526020016040518091039020600a019081612e07919061432d565b505f600382604051612e199190613f47565b9081526020016040518091039020600b018190555050565b5f80600383604051612e439190613f47565b9081526020016040518091039020600301805480602002602001604051908101604052809291908181526020015f905b82821015612f1b578382905f5260205f20018054612e9090613edd565b80601f0160208091040260200160405190810160405280929190818152602001828054612ebc90613edd565b8015612f075780601f10612ede57610100808354040283529160200191612f07565b820191905f5260205f20905b815481529060010190602001808311612eea57829003601f168201915b505050505081526020019060010190612e73565b5050505090505f5b8151811015612f7357612f50828281518110612f4257612f41614502565b5b602002602001015186611ec2565b15612f6057600192505050612f79565b8080612f6b906145c5565b915050612f23565b505f9150505b92915050565b5f805f90505b600583604051612f959190613f47565b908152602001604051809103902080549050811015613055578373ffffffffffffffffffffffffffffffffffffffff16600584604051612fd59190613f47565b90815260200160405180910390208281548110612ff557612ff4614502565b5b905f5260205f20015f9054906101000a900473ffffffffffffffffffffffffffffffffffffffff1673ffffffffffffffffffffffffffffffffffffffff160361304257600191505061305a565b808061304d906145c5565b915050612f85565b505f90505b92915050565b828054828255905f5260205f209081019282156130a6579160200282015b828111156130a5578251829081613095919061432d565b509160200191906001019061307e565b5b5090506130b39190613131565b5090565b604051806101a001604052805f73ffffffffffffffffffffffffffffffffffffffff1681526020016060815260200160608152602001606081526020015f81526020015f81526020016060815260200160608152602001606081526020015f15158152602001606081526020015f81526020015f81525090565b5b80821115613150575f81816131479190613154565b50600101613132565b5090565b50805461316090613edd565b5f825580601f10613171575061318e565b601f0160209004905f5260205f209081019061318d9190613191565b5b50565b5b808211156131a8575f815f905550600101613192565b5090565b5f604051905090565b5f80fd5b5f80fd5b5f80fd5b5f80fd5b5f601f19601f8301169050919050565b7f4e487b71000000000000000000000000000000000000000000000000000000005f52604160045260245ffd5b61320b826131c5565b810181811067ffffffffffffffff8211171561322a576132296131d5565b5b80604052505050565b5f61323c6131ac565b90506132488282613202565b919050565b5f67ffffffffffffffff821115613267576132666131d5565b5b613270826131c5565b9050602081019050919050565b828183375f83830152505050565b5f61329d6132988461324d565b613233565b9050828152602081018484840111156132b9576132b86131c1565b5b6132c484828561327d565b509392505050565b5f82601f8301126132e0576132df6131bd565b5b81356132f084826020860161328b565b91505092915050565b5f6020828403121561330e5761330d6131b5565b5b5f82013567ffffffffffffffff81111561332b5761332a6131b9565b5b613337848285016132cc565b91505092915050565b5f73ffffffffffffffffffffffffffffffffffffffff82169050919050565b5f61336982613340565b9050919050565b6133798161335f565b82525050565b5f81519050919050565b5f82825260208201905092915050565b5f5b838110156133b657808201518184015260208101905061339b565b5f8484015250505050565b5f6133cb8261337f565b6133d58185613389565b93506133e5818560208601613399565b6133ee816131c5565b840191505092915050565b5f819050919050565b61340b816133f9565b82525050565b5f8115159050919050565b61342581613411565b82525050565b5f6101808201905061343f5f83018f613370565b8181036020830152613451818e6133c1565b90508181036040830152613465818d6133c1565b9050613474606083018c613402565b613481608083018b613402565b81810360a0830152613493818a6133c1565b905081810360c08301526134a781896133c1565b905081810360e08301526134bb81886133c1565b90506134cb61010083018761341c565b8181036101208301526134de81866133c1565b90506134ee610140830185613402565b6134fc610160830184613402565b9d9c50505050505050505050505050565b613516816133f9565b8114613520575f80fd5b50565b5f813590506135318161350d565b92915050565b5f806040838503121561354d5761354c6131b5565b5b5f83013567ffffffffffffffff81111561356a576135696131b9565b5b613576858286016132cc565b925050602061358785828601613523565b9150509250929050565b5f6020820190506135a45f830184613370565b92915050565b5f6020820190506135bd5f830184613402565b92915050565b6135cc81613411565b81146135d6575f80fd5b50565b5f813590506135e7816135c3565b92915050565b5f67ffffffffffffffff821115613607576136066131d5565b5b602082029050602081019050919050565b5f80fd5b5f61362e613629846135ed565b613233565b9050808382526020820190506020840283018581111561365157613650613618565b5b835b8181101561369857803567ffffffffffffffff811115613676576136756131bd565b5b80860161368389826132cc565b85526020850194505050602081019050613653565b5050509392505050565b5f82601f8301126136b6576136b56131bd565b5b81356136c684826020860161361c565b91505092915050565b5f805f805f805f805f6101208a8c0312156136ed576136ec6131b5565b5b5f8a013567ffffffffffffffff81111561370a576137096131b9565b5b6137168c828d016132cc565b99505060208a013567ffffffffffffffff811115613737576137366131b9565b5b6137438c828d016132cc565b98505060408a013567ffffffffffffffff811115613764576137636131b9565b5b6137708c828d016132cc565b97505060606137818c828d016135d9565b96505060808a013567ffffffffffffffff8111156137a2576137a16131b9565b5b6137ae8c828d016136a2565b95505060a06137bf8c828d01613523565b94505060c08a013567ffffffffffffffff8111156137e0576137df6131b9565b5b6137ec8c828d016132cc565b93505060e08a013567ffffffffffffffff81111561380d5761380c6131b9565b5b6138198c828d016132cc565b9250506101008a013567ffffffffffffffff81111561383b5761383a6131b9565b5b6138478c828d016132cc565b9150509295985092959850929598565b6138608161335f565b811461386a575f80fd5b50565b5f8135905061387b81613857565b92915050565b5f60208284031215613896576138956131b5565b5b5f6138a38482850161386d565b91505092915050565b5f6020820190508181035f8301526138c481846133c1565b905092915050565b5f81519050919050565b5f82825260208201905092915050565b5f819050602082019050919050565b6138fe8161335f565b82525050565b5f82825260208201905092915050565b5f61391e8261337f565b6139288185613904565b9350613938818560208601613399565b613941816131c5565b840191505092915050565b5f81519050919050565b5f82825260208201905092915050565b5f819050602082019050919050565b5f6139808383613914565b905092915050565b5f602082019050919050565b5f61399e8261394c565b6139a88185613956565b9350836020820285016139ba85613966565b805f5b858110156139f557848403895281516139d68582613975565b94506139e183613988565b925060208a019950506001810190506139bd565b50829750879550505050505092915050565b613a10816133f9565b82525050565b613a1f81613411565b82525050565b5f6101a083015f830151613a3b5f8601826138f5565b5060208301518482036020860152613a538282613914565b91505060408301518482036040860152613a6d8282613914565b91505060608301518482036060860152613a878282613994565b9150506080830151613a9c6080860182613a07565b5060a0830151613aaf60a0860182613a07565b5060c083015184820360c0860152613ac78282613914565b91505060e083015184820360e0860152613ae18282613914565b915050610100830151848203610100860152613afd8282613914565b915050610120830151613b14610120860182613a16565b50610140830151848203610140860152613b2e8282613914565b915050610160830151613b45610160860182613a07565b50610180830151613b5a610180860182613a07565b508091505092915050565b5f613b708383613a25565b905092915050565b5f602082019050919050565b5f613b8e826138cc565b613b9881856138d6565b935083602082028501613baa856138e6565b805f5b85811015613be55784840389528151613bc68582613b65565b9450613bd183613b78565b925060208a01995050600181019050613bad565b50829750879550505050505092915050565b5f6020820190508181035f830152613c0f8184613b84565b905092915050565b5f8060408385031215613c2d57613c2c6131b5565b5b5f83013567ffffffffffffffff811115613c4a57613c496131b9565b5b613c56858286016132cc565b9250506020613c678582860161386d565b9150509250929050565b5f82825260208201905092915050565b5f613c8b8261394c565b613c958185613c71565b935083602082028501613ca785613966565b805f5b85811015613ce25784840389528151613cc38582613975565b9450613cce83613988565b925060208a01995050600181019050613caa565b50829750879550505050505092915050565b5f6020820190508181035f830152613d0c8184613c81565b905092915050565b5f60208284031215613d2957613d286131b5565b5b5f613d3684828501613523565b91505092915050565b5f8060408385031215613d5557613d546131b5565b5b5f83013567ffffffffffffffff811115613d7257613d716131b9565b5b613d7e858286016132cc565b925050602083013567ffffffffffffffff811115613d9f57613d9e6131b9565b5b613dab858286016132cc565b9150509250929050565b5f602082019050613dc85f83018461341c565b92915050565b5f8060408385031215613de457613de36131b5565b5b5f613df18582860161386d565b9250506020613e0285828601613523565b9150509250929050565b5f805f60608486031215613e2357613e226131b5565b5b5f84013567ffffffffffffffff811115613e4057613e3f6131b9565b5b613e4c868287016132cc565b935050602084013567ffffffffffffffff811115613e6d57613e6c6131b9565b5b613e79868287016132cc565b925050604084013567ffffffffffffffff811115613e9a57613e996131b9565b5b613ea6868287016132cc565b9150509250925092565b7f4e487b71000000000000000000000000000000000000000000000000000000005f52602260045260245ffd5b5f6002820490506001821680613ef457607f821691505b602082108103613f0757613f06613eb0565b5b50919050565b5f81905092915050565b5f613f218261337f565b613f2b8185613f0d565b9350613f3b818560208601613399565b80840191505092915050565b5f613f528284613f17565b915081905092915050565b7f50726f64756374206973206e6f74206f6e676f696e67000000000000000000005f82015250565b5f613f91601683613389565b9150613f9c82613f5d565b602082019050919050565b5f6020820190508181035f830152613fbe81613f85565b9050919050565b7f43616c6c6572206973206e6f74207468652070726f64756374206f776e6572005f82015250565b5f613ff9601f83613389565b915061400482613fc5565b602082019050919050565b5f6020820190508181035f83015261402681613fed565b9050919050565b7f526566756e64656420746865206d6f6e657900000000000000000000000000005f82015250565b5f614061601283613389565b915061406c8261402d565b602082019050919050565b5f6020820190508181035f83015261408e81614055565b9050919050565b7f496e73756666696369656e7420616d6f756e74000000000000000000000000005f82015250565b5f6140c9601383613389565b91506140d482614095565b602082019050919050565b5f6020820190508181035f8301526140f6816140bd565b9050919050565b7f4e487b71000000000000000000000000000000000000000000000000000000005f52601160045260245ffd5b5f614134826133f9565b915061413f836133f9565b9250828203905081811115614157576141566140fd565b5b92915050565b5f614167826133f9565b9150614172836133f9565b925082820190508082111561418a576141896140fd565b5b92915050565b5f819050815f5260205f209050919050565b5f6020601f8301049050919050565b5f82821b905092915050565b5f600883026141ec7fffffffffffffffffffffffffffffffffffffffffffffffffffffffffffffffff826141b1565b6141f686836141b1565b95508019841693508086168417925050509392505050565b5f819050919050565b5f61423161422c614227846133f9565b61420e565b6133f9565b9050919050565b5f819050919050565b61424a83614217565b61425e61425682614238565b8484546141bd565b825550505050565b5f90565b614272614266565b61427d818484614241565b505050565b5b818110156142a0576142955f8261426a565b600181019050614283565b5050565b601f8211156142e5576142b681614190565b6142bf846141a2565b810160208510156142ce578190505b6142e26142da856141a2565b830182614282565b50505b505050565b5f82821c905092915050565b5f6143055f19846008026142ea565b1980831691505092915050565b5f61431d83836142f6565b9150826002028217905092915050565b6143368261337f565b67ffffffffffffffff81111561434f5761434e6131d5565b5b6143598254613edd565b6143648282856142a4565b5f60209050601f831160018114614395575f8415614383578287015190505b61438d8582614312565b8655506143f4565b601f1984166143a386614190565b5f5b828110156143ca578489015182556001820191506020850194506020810190506143a5565b868310156143e757848901516143e3601f8916826142f6565b8355505b6001600288020188555050505b505050505050565b7f4e487b71000000000000000000000000000000000000000000000000000000005f52601260045260245ffd5b5f614433826133f9565b915061443e836133f9565b92508261444e5761444d6143fc565b5b828204905092915050565b5f614463826133f9565b915061446e836133f9565b925082820261447c816133f9565b91508282048414831517614493576144926140fd565b5b5092915050565b7f50726f64756374204372656174656400000000000000000000000000000000005f82015250565b5f6144ce600f83613389565b91506144d98261449a565b602082019050919050565b5f6020820190508181035f8301526144fb816144c2565b9050919050565b7f4e487b71000000000000000000000000000000000000000000000000000000005f52603260045260245ffd5b5f815461453b81613edd565b6145458186613f0d565b9450600182165f811461455f5760018114614574576145a6565b60ff19831686528115158202860193506145a6565b61457d85614190565b5f5b8381101561459e5781548189015260018201915060208101905061457f565b838801955050505b50505092915050565b5f6145ba828461452f565b915081905092915050565b5f6145cf826133f9565b91507fffffffffffffffffffffffffffffffffffffffffffffffffffffffffffffffff8203614601576146006140fd565b5b600182019050919050565b7f52657669657720626f75676874000000000000000000000000000000000000005f82015250565b5f614640600d83613389565b915061464b8261460c565b602082019050919050565b5f6020820190508181035f83015261466d81614634565b9050919050565b7f6f6e676f696e67000000000000000000000000000000000000000000000000005f82015250565b5f6146a8600783613f0d565b91506146b382614674565b600782019050919050565b5f6146c88261469c565b9150819050919050565b7f52657669657765722068617320616c72656164792072657669657765640000005f82015250565b5f614706601d83613389565b9150614711826146d2565b602082019050919050565b5f6020820190508181035f830152614733816146fa565b9050919050565b7f50726f6475637420686173206e6f206d6f6e6579206c656674000000000000005f82015250565b5f61476e601983613389565b91506147798261473a565b602082019050919050565b5f6020820190508181035f83015261479b81614762565b9050919050565b7f52657669657720616464656400000000000000000000000000000000000000005f82015250565b5f6147d6600c83613389565b91506147e1826147a2565b602082019050919050565b5f6020820190508181035f830152614803816147ca565b9050919050565b7f50726f64756374206e6f7420666f756e640000000000000000000000000000005f82015250565b5f61483e601183613389565b91506148498261480a565b602082019050919050565b5f6020820190508181035f83015261486b81614832565b905091905056fea2646970667358221220cf4b66a78bc8e8db10f979d6401526dd9e02cadf66e08f5f232fc08ce608be0964736f6c63430008140033",
  "immutableReferences": {},
  "source": "// SPDX-License-Identifier: MIT\npragma solidity ^0.8.20;\n\ncontract MoneyDistribution {\n    struct AllDetails {\n        address owner;\n        string name;\n        string prodimg;\n        string[] orderIDs;\n        uint amt;\n        uint min_review_count;\n        string prod_Details;\n        string imgurl;\n        string company_name;\n        bool typ;\n        string status;\n        uint nextAmount;\n        uint reviewCount;\n    }\n\n    string[] public allProduct;\n    string[] public finishedProduct;\n    mapping(address => uint) public overallProfit;\n    mapping(string => AllDetails) public products;\n    mapping(string => uint) public moneyLeft;\n    mapping(string => address[]) public reviewers;\n    mapping(address => string[]) public ownproducts;\n    mapping(string => string[]) public reviews;\n    mapping(string => address[]) public prodAccess;\n    address public owner;\n    uint public ourBalance;\n\n    constructor() {\n        owner = msg.sender;\n    }\n\n    modifier onlyOwner() {\n        require(msg.sender == owner, \"Not the contract owner\");\n        _;\n    }\n\n    receive() external payable {}\n\n    event event1(string message);\n\n    function NewProduct(\n        string memory prodID,\n        string memory prodimg,\n        string memory name,\n        bool t,\n        string[] memory orderIDs,\n        uint min_review_count,\n        string memory prod_Details,\n        string memory imgurl,\n        string memory company_name\n    ) public payable {        \n        if (msg.value < 100) {\n            emit event1(\"Insufficient amount\");\n            return;\n        }\n\n        uint amt = msg.value - 100;\n        ourBalance += 100;\n        payable(0xb4F10CF4303F864bC564FDd37b639FdC0842aD57).transfer(100);\n\n        allProduct.push(prodID);\n        moneyLeft[prodID] = amt;\n        products[prodID] = AllDetails({\n            owner: msg.sender,\n            name: name,\n            prodimg: prodimg,\n            orderIDs: orderIDs,\n            amt: amt,\n            min_review_count: min_review_count,\n            prod_Details: prod_Details,\n            imgurl: imgurl,\n            company_name: company_name,\n            typ: t,\n            status: \"ongoing\",\n            nextAmount: 0,\n            reviewCount: 0\n        });\n\n        uint x = min_review_count / 3;\n        products[prodID].nextAmount = (amt / (x * 4)) * 2;\n        \n        ownproducts[msg.sender].push(prodID);\n        prodAccess[prodID].push(msg.sender);\n\n        emit event1(\"Product Created\");\n    }\n\n    function NewReview(string memory orderID, string memory prodID, string memory review) public payable {\n        if ((keccak256(abi.encodePacked(products[prodID].status)) == keccak256(abi.encodePacked(\"ongoing\"))) && ((products[prodID].typ == false) || (products[prodID].typ == true && isOrderIDValid(orderID, prodID) == true))) {        \n            if (hasReviewed(msg.sender, prodID)) {\n                emit event1(\"Reviewer has already reviewed\");\n                return;\n            }\n            uint x = products[prodID].min_review_count / 3;\n            uint y = products[prodID].amt / (x * 4);\n            if (moneyLeft[prodID] < y || products[prodID].reviewCount >= 2 * x) {   \n                endProduct(prodID);\n                emit event1(\"Product has no money left\");\n                return;\n            }\n            reviews[prodID].push(review);\n            reviewers[prodID].push(msg.sender);\n            products[prodID].reviewCount ++;\n            if (products[prodID].reviewCount < x) {\n                payable(msg.sender).transfer(2 * y);\n                overallProfit[msg.sender] += 2 * y;\n                moneyLeft[prodID] -= 2 * y;\n                if (products[prodID].reviewCount == x) {\n                    products[prodID].nextAmount = y;\n                }\n            } else if (products[prodID].reviewCount >= x && products[prodID].reviewCount < 2 * x) {\n                payable(msg.sender).transfer(y);\n                moneyLeft[prodID] -= y;\n                overallProfit[msg.sender] += y;\n                if (products[prodID].reviewCount == 2 * x || moneyLeft[prodID] < y) {\n                    products[prodID].nextAmount = 0;\n                    endProduct(prodID);\n                }\n            }        \n            emit event1(\"Review added\");\n        } else {\n            emit event1(\"Product not found\");\n        }\n    }\n    function Refund(string memory prodID) public payable{\n        require(compareStrings(products[prodID].status,\"ongoing\"), \"Product is not ongoing\");\n        require(isProductOwner(prodID, msg.sender), \"Caller is not the product owner\");\n\n        uint refundAmount = moneyLeft[prodID];\n        moneyLeft[prodID] = 0;\n        payable(msg.sender).transfer(refundAmount);\n        endProduct(prodID);\n\n        emit event1(\"Refunded the money\");\n    }\n\n    function getProducts() public view returns (AllDetails[] memory) {\n        uint totalLength = allProduct.length;\n        AllDetails[] memory allProducts = new AllDetails[](totalLength);\n        for (uint i = 0; i < allProduct.length; i++) {\n            allProducts[i] = products[allProduct[i]];\n        }\n        return allProducts;\n    }\n\n    function getAllProductbyOwner() public view returns (AllDetails[] memory) {\n        uint totalLength = ownproducts[msg.sender].length;\n        AllDetails[] memory allProducts = new AllDetails[](totalLength);\n        for (uint i = 0; i < ownproducts[msg.sender].length; i++) {\n            allProducts[i] = products[ownproducts[msg.sender][i]];\n        }\n\n        return allProducts;\n    }\n\n    function getReview(string memory prodID, address addr) public view returns (string[] memory) {\n        require(isProductOwner(prodID, addr), \"Caller is not the product owner\");\n        return reviews[prodID];\n    }\n\n    function BuyReview(string memory prodID, uint amt) public {\n        if (amt < 2 * products[prodID].amt) {\n            emit event1(\"Insufficient amount\");\n            return;\n        }\n\n        address adr = msg.sender;\n        uint ourProf = 2 * amt / 10;\n        uint eachProf = amt - ourProf;\n\n        for (uint i = 0; i < reviewers[prodID].length; i++) {\n            payable(reviewers[prodID][i]).transfer(eachProf / reviewers[prodID].length);\n            overallProfit[reviewers[prodID][i]] += eachProf / reviewers[prodID].length;\n        }\n\n        ourBalance += ourProf;\n        payable(owner).transfer(ourProf);\n\n        prodAccess[prodID].push(adr);\n        ownproducts[msg.sender].push(prodID);\n\n        emit event1(\"Review bought\");\n    }\n\n    function getProfit(address addr) public view returns (uint) {\n        return overallProfit[addr];\n    }\n\n    function isOrderIDValid(string memory orderID, string memory prodID) internal view returns (bool) {\n        string[] memory orderIDs = products[prodID].orderIDs;\n        for (uint i = 0; i < orderIDs.length; i++) {\n            if (compareStrings(orderIDs[i], orderID)) {\n                return true;\n            }\n        }\n        return false;\n    }\n\n    function compareStrings(string memory a, string memory b) public pure returns (bool) {\n        return keccak256(abi.encodePacked(a)) == keccak256(abi.encodePacked(b));\n    }\n\n    function hasReviewed(address reviewer, string memory prodID) internal view returns (bool) {\n        for (uint i = 0; i < reviewers[prodID].length; i++) {\n            if (reviewers[prodID][i] == reviewer) {\n                return true;\n            }\n        }\n        return false;\n    }\n\n    function isProductOwner(string memory prodID, address addr) internal view returns (bool) {\n        for (uint i = 0; i < prodAccess[prodID].length; i++) {\n            if (prodAccess[prodID][i] == addr) {\n                return true;\n            }\n        }\n        return false;\n    }\n\n    function endProduct(string memory prodID) internal {\n        products[prodID].status = \"ended\";\n        products[prodID].nextAmount = 0;\n    }\n\n    function removeFromArray(string[] storage array, string memory value) internal {\n        for (uint i = 0; i < array.length; i++) {\n            if (compareStrings(array[i], value)) {\n                array[i] = array[array.length - 1];\n                array.pop();\n                break;\n            }\n        }\n    }\n}\n",
  "sourcePath": "D:\\codes\\flow1\\Solidity\\contracts\\Migrations.sol",
  "compiler": {
    "name": "solc",
    "version": "0.8.20+commit.a1b79de6.Emscripten.clang"
  },
  "schemaVersion": "3.4.16",
  "updatedAt": "2024-06-22T14:58:37.993Z",
  "networkType": "ethereum",
  "devdoc": {
    "kind": "dev",
    "methods": {},
    "version": 1
  },
  "userdoc": {
    "kind": "user",
    "methods": {},
    "version": 1
  }
}